:1000000018F8FF1F79040000F1040000F10400005B
:1000100000000000000000000000000000000000E0
:10002000000000000000000000000000F1040000DB
:100030000000000000000000F1040000E5040000E2
:10004000F1040000F1040000F1040000F1040000DC
:1000500000000000F1040000F1040000F1040000C1
:10006000F1040000F1040000F1040000F1040000BC
:10007000F1040000F1040000F1040000F1040000AC
:10008000F1040000F1040000F1040000F10400009C
:10009000F1040000F1040000F10400000000000081
:1000A000F1040000F1040000F1040000F10400007C
:1000B000F104000000000000F1040000F104000061
:10040000FFFFFFFFFFFFFFFFFFFFFFFFFEFFFFFFFD
:1004100080B584B000AF786000F074FB031CFB6013
:10042000C04600F06FFB021CFB68D21A7B689A4240
:10043000F7D3BD4604B080BD80B582B000AF786010
:100440007A680B4B9A4201D901230CE0094B7A6878
:100450001202120A013A5A60064B00229A60054BBA
:1004600007221A600023181CBD4602B080BDC0469A
:10047000FFFFFF0010E000E080B582B000AF00F0A9
:1004800003FB124B7B60124B3B6007E03B681A1D7D
:100490003A607A68111D796012681A603A680D4BEB
:1004A0009A42F3D30C4B3B6004E03B681A1D3A6060
:1004B00000221A603A68094B9A42F6D3084B181C7E
:1004C000FFF7BAFF00F096F8FEE7C046200D0000E7
:1004D00000F0FF1F04F4FF1F04F4FF1F14F4FF1FBC
:1004E00080BB000080B500AF00F000FBBD4680BDC2
:1004F00080B500AFFEE7C04680B500AF0E4A882346
:100500005B010021D1500C4A0B490C4BCB58802188
:1005100089001943094BD150094B802252001A60BF
:10052000084B01229A60074B064A526901210A438F
:100530005A61BD4680BDC0460070044038100000BE
:1005400000A0044040F00F4080B500AF00F0DAFAA0
:10055000021C074B1B68D31AFA2B07D900F0D2FAFA
:10056000021C034B1A60034B0122DA60BD4680BDBA
:1005700004F4FF1F40F00F4080B582B000AF3B1C79
:10058000184A03CA03C300F0BDFA021C164B1B68CD
:10059000D31AFA2B22D900F0B5FA021C124B1A60BA
:1005A000124B1B785A1CD1B2104A1170181C00F063
:1005B0006BF90F4B1A683B1C9200D358181C002192
:1005C00000F082F90A4B1B685A1C094B1A60084B51
:1005D0001B68012B02DD064B00221A60BD4602B0EB
:1005E00080BDC046180D000000F0FF1F08F4FF1F7B
:1005F0000CF4FF1F80B500AFFFF77EFFFFF7A4FFED
:10060000FCE7C04680B582B000AF021CFB1D1A702B
:10061000C046084B1B78DBB21A1C20231340F8D0CD
:10062000054B40229A60034BFA1D12789A71BD4621
:1006300002B080BD00600740C0F00F4080B582B0BE
:1006400000AF021CFB1D1A70C046084B1B78DBB2C2
:100650001A1C20231340F8D0054B40225A60034B4C
:10066000FA1D12789A71BD4602B080BD0060074045
:10067000C0F00F4080B582B000AF794A7849794B1D
:10068000CB58802109011943764BD150744A7449E3
:10069000744BCB58802149011943724BD150724B96
:1006A00080225200DA61714B80229A606F4B6F4A50
:1006B000526980210A435A616D4B802252001A61AF
:1006C0006C4B10229A606B4B6A4A526910210A43A4
:1006D0005A61674B802252005A61664B20229A6011
:1006E000644B644A526920210A435A61604B80225C
:1006F00052009A615F4B40229A605E4B5D4A52699C
:1007000040210A435A61584B802292001A61564B8D
:10071000802292005A61544B802292009A61504A82
:100720004F49554BCB588021C9031943524BD150E7
:10073000524B524AD278D2B21A210A43D2B2DA705C
:100740004E4B4E4A9278D2B210210A43D2B29A70DE
:100750004A4B00225A70494B484AD278D2B24021C3
:100760000A43D2B2DA700120FFF752FE3F4B8022DB
:100770009A600A20FFF74CFE3C4B80225A603D4BAA
:1007800010229A603B4B20229A600520FFF740FE22
:10079000AE20FFF737FFD520FFF734FF8020FFF7AB
:1007A00031FFA820FFF72EFF3F20FFF72BFFD320BC
:1007B000FFF728FF0020FFF725FF4020FFF722FF6B
:1007C0008D20FFF71FFF1420FFF71CFF2020FFF7ED
:1007D00019FF0020FFF716FFA020FFF713FFC0202E
:1007E000FFF710FFDA20FFF70DFF1220FFF70AFFD7
:1007F0008120FFF707FFCF20FFF704FFD920FFF785
:1008000001FFF120FFF7FEFEDB20FFF7FBFE40209B
:10081000FFF7F8FEA420FFF7F5FEA620FFF7F2FE93
:10082000AF20FFF7EFFE0020FFF7ECFE1020FFF7F0
:10083000E9FE4020FFF7E6FE00237B6009E0104A56
:100840007B68D3181B78181CFFF7F8FE7B68013310
:100850007B607A680B4B9A42F1D9BD4602B080BDED
:10086000007004403810000000B0044080F00F40D9
:1008700000C00440C0F00F4034100000006007408A
:1008800004F0FF1FFF03000080B582B000AF021C20
:10089000FB1D1A70FB1D1A7807231340DAB2FB1DEB
:1008A000D2001A70FB1DFA1D127840218A1A1A70A4
:1008B000D320FFF7A7FEFB1D1B78181CFFF7A2FE35
:1008C000BD4602B080BDC04680B584B000AF786040
:1008D00039600023FB600020FFF794FE1020FFF733
:1008E00091FE4020FFF78EFE36E07B681B78203BB0
:1008F0005F2B1CDC7B681B781F2B18D90023BB6087
:1009000011E07B681B781A1C203A131C9B009B1873
:100910001A1CBB68D318224AD35C181CFFF78EFE42
:10092000BB680133BB60BB68042BEAD90BE0002332
:10093000BB6005E00020FFF781FEBB680133BB60B0
:10094000BB68042BF6D90020FFF778FE7B680133E3
:100950007B60FB680133FB607B681B78002B09D050
:10096000FB685A1C131C5B009B181B011A1C0D4BC7
:100970009A42BAD9FA68131C5B009B181B018022AB
:100980009201D31ADB08FB6002E00020FFF756FE5D
:10099000FB685A1EFA60002BF7D1BD4604B080BD3B
:1009A000180B0000FF1F000080B584B000AF786016
:1009B00039600023FB600020FFF724FE1020FFF7C2
:1009C00021FE4020FFF71EFE36E07B681B78203BAF
:1009D0005F2B1CDC7B681B781F2B18D90023BB60A6
:1009E00011E07B681B781A1C203A131C9B009B1893
:1009F0001A1CBB68D318224AD35C181CFFF71EFED2
:100A0000BB680133BB60BB68042BEAD90BE0002351
:100A1000BB6005E00020FFF711FEBB680133BB603F
:100A2000BB68042BF6D90020FFF708FE7B68013372
:100A30007B60FB680133FB607B681B78002B09D06F
:100A4000FB685A1C131C5B009B181B011A1C0D4BE6
:100A50009A42BAD9FA68131C5B009B181B018022CA
:100A60009201D31ADB08FB6002E00020FFF7E6FDED
:100A7000FB685A1EFA60002BF7D1BD4604B080BD5A
:100A8000180B0000FF1F000080B500AF124B124A88
:100A9000D278D1B21F220A40D2B2602149420A4321
:100AA000D2B2DA700D4A0D490D4BCB58E0218B4381
:100AB000402119430A4BD150084A0849094BCB58E9
:100AC000802109011943074BD150074BA822D200BE
:100AD000DA60BD4680BDC04600400640007004405C
:100AE000041000003810000000B0044080B500AFD2
:100AF000034B1B685A1C024B1A60BD4680BDC046A2
:100B000010F4FF1F80B500AF024B1B68181CBD46D8
:100B100080BDC04610F4FF1F000000000000005F11
:100B200000000007000700147F147F14242A7F2A86
:100B30001223130864623649552250000503000051
:100B4000001C2241000041221C00082A1C2A08081F
:100B5000083E080800503000000808080808003067
:100B600030000020100804023E5149453E00427FFB
:100B7000400042615149462141454B311814127FD2
:100B80001027454545393C4A49493001710905035B
:100B90003649494936064949291E003636000000C3
:100BA0005636000000081422411414141414412273
:100BB0001408000201510906324979413E7E1111A3
:100BC000117E7F494949363E414141227F414122C0
:100BD0001C7F494949417F090901013E4141513288
:100BE0007F0808087F00417F41002040413F017F8E
:100BF000081422417F404040407F0204027F7F046E
:100C000008107F3E4141413E7F090909063E41519E
:100C1000215E7F09192946464949493101017F0171
:100C2000013F4040403F1F2040201F7F2018207F71
:100C300063140814630304780403615149454300B5
:100C4000007F4141020408102041417F000004025E
:100C5000010204404040404000010204002054547E
:100C600054787F4844443838444444203844444805
:100C70007F3854545418087E090102081454543C17
:100C80007F0804047800447D40002040443D00007B
:100C90007F10284400417F40007C041804787C08C1
:100CA00004047838444444387C1414140808141498
:100CB000187C7C080404084854545420043F4440E1
:100CC000203C4040207C1C2040201C3C4030403CCC
:100CD00044281028440C5050503C4464544C440068
:100CE0000836410000007F00000041360800080877
:100CF0002A1C08081C2A080848656C6C6F20776F4E
:100D0000726C642100000000416E6F74686572208F
:100D1000737472696E672E00F80C0000080D0000F5
:100D2000E9030000000000000000000000000000D7
:100D300000000000000000000000000000000000B3
:100D400000000000000000000000000000000000A3
:100D500000000080C0F070383CFCC4040436B622A9
:100D60000606060A8A969E84C4CC8C9CCCD8383061
:100D7000E0C00000000000000000000000000000D3
:100D80000000000000000000000000000000000063
:100D90000000000000000000000000000000000053
:100DA0000000000000000000000000000000000043
:100DB0000000000000000000000000000000000033
:100DC000000000000000000000000000000000E043
:100DD000F8BE0719D9F8FC3C38383A3E1E0E0F0F02
:100DE0000E0E0E0E1E1F1C381C0D0D1C3E7F7C7837
:100DF000F1C3C74EFCF080000000000000000000BE
:100E000000000000000000000000000000000000E2
:100E100000000000000000000000000000000000D2
:100E200000000000000000000000000000000000C2
:100E300000000000000000000000000000000000B2
:100E4000000000000000000000000000000000FFA3
:100E5000FFC1C0E0EF7F00000000000000000000C4
:100E60000000000000000000000000000000000082
:100E7000000103FFFDFD0F00000000000000000066
:100E80000000000000000000000000000000000062
:100E90000000000000000000000000000000000052
:100EA0000000000000000000000000000000000042
:100EB0000000000000000000000000000000000032
:100EC000000000000000000000000000C0F00C8CDA
:100ED000CF8EFEFF010000A0B0909898585858D8C7
:100EE0009898F0F0302060F09090D858589890B0D2
:100EF000302000037FFC0C1C38F0E00000000000F4
:100F000000000000000000000000000000000000E1
:100F100000000000000000000000000000000000D1
:100F200000000000000000000000000000000000C1
:100F300000000000000000000000000000000000B1
:100F4000000000000000000000000000071F3063E8
:100F50006340C0FFC0000001010101030686C7E72E
:100F6000630301000000000307E7C68606060303CB
:100F700003070100F8D3437B381F0700000000007F
:100F80000000000000000000000000000000000061
:100F90000000000000000000000000000000000051
:100FA0000000000000000000000000000000000041
:100FB0000000000000000000000000000000000031
:100FC0000000000000000000000000000000000021
:100FD00000003EFFE3000070C0803CFE3F337074B1
:100FE00004626F4C78CFEFDA2A606123277E2000FD
:100FF000C07800FE7F00000000000000000000003C
:1010000000000000000000000000000000000000E0
:1010100000000000000000000000000000000000D0
:1010200000000000000000000000000000000000C0
:1010300000000000000000000000000000000000B0
:101040000000000000000000000000000000008020
:101050008000C0213F070E3C78F0C2C7C70C0C00CF
:101060000C0C0C0C18181C1C08008486F3E160FCA6
:101070003C1E07010000000000000000000000000E
:101080000000000000000000000000000000000060
:101090000000000000000000000000000000000050
:1010A0000000000000000000000000000000000040
:1010B0000000000000000000000000000000000030
:1010C00000000000000000000000004030381F0158
:1010D000001F3F21000030200000010313030337ED
:1010E0003636232226263723070703011518020761
:1010F00073060C1830004080000000000000000063
:1011000000000000000000000000000000000000DF
:1011100000000000000000000000000000000000CF
:0411200000000000CB
:0400000300000410E5
:00000001FF
