:100000006808002029040000910400009104000009
:1000100000000000000000000000000000000000E0
:10002000000000000000000000000000910400003B
:10003000000000000000000091040000890400009E
:10004000910400009104000091040000910400005C
:1000500000000000910400009104000091040000E1
:10006000910400009104000091040000910400003C
:10007000910400009104000091040000910400002C
:10008000910400009104000091040000910400001C
:1000900091040000910400009104000000000000A1
:1000A00091040000910400009104000091040000FC
:1000B0009104000000000000910400009104000081
:10040000FFFFFFFFFFFFFFFFFFFFFFFFFEFFFFFFFD
:1004100038B5041C00F0A6FA051C00F0A3FA401B36
:10042000A042FAD338BD000008B500F089FA0023D5
:100430000E4A0F499A188A4204D20E49C958043309
:100440001160F5E70C4B0D49181D043B00228B424F
:1004500002D21A60031CF6E7094B0A4959609A60F8
:1004600007221A6000F016F8FEE7C04600000020E0
:1004700068040020B015000004FCFF1F24FDFF1FCE
:1004800010E000E07FBB000008B500F063FA08BD93
:10049000FEE70000F0B58BB000F0C8FE894B882263
:1004A000002152019950884A80209C5880002043A6
:1004B000985080248548864D6400046110246C6047
:1004C0006E69C02734436C610424FF34C4606869DA
:1004D0000824A04368619C588020C00004439C50BD
:1004E0007C4CBF00E76027617B4F8024DE59E70426
:1004F000794C37431F51794C1F261F5907431F5111
:10050000774FBC682402240EB4430194019E0F244B
:100510002643BE723C681A247C7039703C680C26F5
:10052000240E3443FC709C58204398506D4A802020
:100530009C58000520436C4C98500523A36008206C
:100540000423E36021626062236000F0F5F800F0AC
:1005500009FA664C2168401A0A2805D900F002FA07
:100560005B4A10232060D360614B02AE321C11CB7A
:1005700011C200F0F7F95F4C2168401AFA2816D929
:1005800000F0F0F95C4B20601878421C1A7000F003
:1005900089F95A4C002122689300985900F090F98B
:1005A000236801332360012B01DD00232360544DB8
:1005B000474C2A7923690821524C012A0DD0002A80
:1005C00003D0022A29D000222A7118072FD4012330
:1005D0002B7100F0C7F9286029E00B40019324D16A
:1005E00000F0C0F92B79C01A642820D922896389C8
:1005F000301C454900F00CFA002804D100F0B2F993
:100600000223286012E0019BF25CFA717A681106FD
:10061000FCD501338342F7D1F0E70B4207D000F05D
:10062000A1F92B79C01A642801D900232B717B68AA
:100630009A0605D4656800F095F9854217D186E7DA
:10064000274B5B681B0E3F2BF4D122896389301C3A
:100650002D4900F0DDF90028ECD00023F25CFA719E
:100660007A681106FCD501338342F7D1E2E71E4ACE
:1006700013681E0600D46AE7231C4C331A781F2126
:1006800001320A401A70184B04321B695200A2183A
:1006900020681B0591881B0D18189380401A1B4B6E
:1006A0002060400958431A4900F062F91949051CB5
:1006B00000F05EF980B22D1A2081658100F052F9B8
:1006C000606044E70070044038100000009004406F
:1006D00000F00F4000A0044004100000341000009F
:1006E00000A006403C10000000B0034000FCFF1FCB
:1006F000E41400000000002054FCFF1F58FCFF1F02
:100700005CFCFF1F04FCFF1FEC1400001009050037
:10071000FF0F0000A0860100024B1A689100FBD574
:100720005871704700600740024B1A689100FBD572
:100730005871704700600740514B524A80219858C9
:100740008900014370B5995098588021C900014330
:1007500099504D484D4A802464002025446195609D
:100760005169294351614A494A4A8C614024946045
:10077000566926435661C02292004A61CA610260EE
:10078000454A80219858C90301439950434B1A2187
:100790001A681026D2B20A431A701A68012012048D
:1007A000120E32435A7003229A701A68D2B2224350
:1007B0001A70FFF72DFE0A20FFF72AFE0520FFF72B
:1007C00027FEAE20FFF7A8FFD520FFF7A5FF80206A
:1007D000FFF7A2FFA820FFF79FFF3F20FFF79CFF36
:1007E000D320FFF799FF0020FFF796FF201CFFF7AB
:1007F00093FF8D20FFF790FF1420FFF78DFF281C3B
:10080000FFF78AFF0020FFF787FFA020FFF784FF94
:10081000C020FFF781FFDA20FFF77EFF1220FFF7ED
:100820007BFF8120FFF778FFCF20FFF775FFD920EE
:10083000FFF772FFF120FFF76FFFDB20FFF76CFF80
:10084000201CFFF769FFA420FFF766FFA620FFF733
:1008500063FFAF20FFF760FF0020FFF75DFF301C54
:10086000FFF75AFF201CFFF757FF00240C4B185DC1
:10087000FFF75AFF01348023DB009C42F6D170BDA4
:10088000007004403810000000A0044040F00F4009
:100890000090044000F00F4034100000006007405A
:1008A0000400002010B50723041C1C40D320FFF7D0
:1008B00033FFE4004020041BE0B2FFF72DFF10BD22
:1008C00070B5061C0020FFF727FF1020FFF724FF5C
:1008D0004020FFF721FF0024335D002B06D1302399
:1008E0005C4380239B011C1BE4081FE0AA2CF6D06C
:1008F000203BDBB25F2B0DD80025325D0523203A6B
:100900005A430E4B5219D05C0135FFF70DFF052DF0
:10091000F3D106E005250020013DFFF705FF002D7E
:10092000F9D10020FFF700FF0134D5E7002C04D0F7
:100930000020FFF7F9FE013CF8E770BD041300004A
:10094000034BA0211A68D200D20E0A43DA70704716
:1009500000400640024B1A6801321A607047C046D8
:1009600064FCFF1F014B18687047C04664FCFF1F02
:10097000002934D00123002210B488422CD3012452
:100980002407A14204D2814202D209011B01F8E7E7
:10099000E400A14204D2814202D249005B00F8E7A0
:1009A000884201D3401A1A434C08A04202D3001BCC
:1009B0005C0822438C08A04202D3001B9C082243FF
:1009C000CC08A04202D3001BDC082243002803D03D
:1009D0001B0901D00909E3E7101C10BC704700286F
:1009E00001D00020C04307B4024802A14018029081
:1009F00003BDC046190000000029F0D003B5FFF781
:100A0000B9FF0EBC4243891A1847C0467047C0461A
:100A10000EB400B59CB01DAB04CB822202A992009B
:100A20008A810A4A02908A604A6101225242CA813E
:100A3000074A086110681D9A019300F06BF8029A4A
:100A4000002313701CB008BC03B01847FFFFFF7FE2
:100A500064040020F0B58D6885B0071C0C1C03925F
:100A60000193AB4245D390228B89D20013423DD0F3
:100A700062690326564309692068F20F401A9619E5
:100A80000290021C0198013212187610964200D290
:100A9000161C381C5A050FD5311C00F02BFB051E07
:100AA00013D0029A216900F0BAFAA289184B1340B8
:100AB00080221343A38111E0321C00F06FFB051E5E
:100AC0000CD1381C216900F0CDFA0C233B60A389BE
:100AD000402213430120A381404217E0029B25617D
:100AE000ED1825606661019DF61AA6600198A8427E
:100AF00000D2019D2A1C2068039900F099FAA2688F
:100B00000020531BA36023685D19256005B0F0BD6C
:100B10007FFBFFFFF0B59FB005938B8903900E1C00
:100B2000171C19060FD53269002A0CD1402100F09C
:100B3000E1FA30603061002803D103990C230B6087
:100B4000C9E04023736106AD00236B6120236B76FF
:100B50003023AB763C1C2378002B03D1E21B02929E
:100B600011D003E0252BF9D00134F4E70398311CB0
:100B70003A1C029BFFF76EFF013000D1A6E06969C5
:100B8000029A8B186B612378002B00D19EE0012222
:100B900052426A606A4600235B3201342B60EB608C
:100BA000AB601370AB654E4F2178381C052200F006
:100BB0002BFA002807D0C71B2B680120B840184328
:100BC00028600134EFE72B68D90603D56A46202157
:100BD0005B3211701A0703D56A462B215B32117004
:100BE00022782A2A01D0099B0EE0059A111D12686D
:100BF0000591002A01DB099204E05242EA600222D8
:100C000013432B60013409E02278303A092A04D8D2
:100C10000A214B4301349B18F6E7099323782E2BC6
:100C200018D163782A2B09D1059B02341A1D1B6841
:100C30000592002B0DDA01235B420AE00134002308
:100C40002278303A092A04D80A214B4301349B18F0
:100C5000F6E70793234F2178381C032200F0D4F9DC
:100C6000002806D0C71B2B684020B84018432860D6
:100C7000013421781C480622671C297600F0C4F94B
:100C8000002812D0194B002B06D1059B07220733F1
:100C900093430833059314E005AB00930398291C94
:100CA000321C134B00E000BF07E005AB0093039834
:100CB000291C321C0E4B00F091F80490049901316C
:100CC00004D06A69049953186B6143E7B3895A06E3
:100CD00001D40B9801E0012040421FB0F0BDC04696
:100CE000161500001C150000201500000000000073
:100CF000550A0000F7B5151C01930A698B68061C9C
:100D00000C1C934200DA131C221C2B604332127815
:100D1000002A01D001332B602068800602D52B68A1
:100D200002332B60216806270F401FD0231C43335A
:100D30001B785A1E9341226892061FD5E118403154
:100D40003020C870211C5A1C45310978A218403245
:100D50000233D17012E0221C301C01991932012398
:100D6000089FB847013011D0009F01370097E06815
:100D70002968009F431A9F42EDDBD7E7221C301CF5
:100D800001994332089FB847013002D10120404207
:100D900023E0206806212B68E26801400025042931
:100DA00003D1D51AEB43DB171D40A26823699A4291
:100DB00001DDD31AED1800270097009FAF420BDA30
:100DC000221C301C01991A320123089FB8470130B8
:100DD000DCD0009F0137EFE70020FEBDF0B58BB0FF
:100DE00007930D1C0B7E4335069205900C1C109A40
:100DF00004956E2B00D1A7E011D8632B22D009D81F
:100E0000002B00D1B0E0582B00D0C0E045310B7072
:100E10007B4D4EE0642B1CD0692B1AD0B7E0732BAE
:100E200000D1A5E009D86F2B29D0702B00D0AEE0FF
:100E30000E68202333430B6036E0752B1FD0782BD0
:100E400032D0A4E013680D1C191D423511601B68D7
:100E50009FE0216813680E0603D5191D11601E68F6
:100E600005E04806F9D5191D116000215E5E644B4E
:100E7000002E3BDA049D2D2276422A7036E021684E
:100E800013680E0603D5191D11601E6804E048069C
:100E9000F9D5191D1E881160594B227E039308272E
:100EA0006F2A1ED00A271CE0231C78214533554D9C
:100EB000197011682368081D039510601E0601D57E
:100EC0000E6802E05806FBD50E88D90702D520220D
:100ED000134323601027002E03D1226820239A4356
:100EE0002260231C002243331A7001E003930A2777
:100EF0006368A360002B03DB25680422954325600B
:100F0000002E02D1049D002B0ED0049D301C391CF4
:100F1000FFF772FD0398013D435C301C2B70391CB8
:100F2000FFF726FD061EF1D1082F09D12168C90758
:100F300006D5626823699A4202DC013D30232B709A
:100F4000049E731B23612AE008681368496905063B
:100F500004D5181D10601B68196005E04606F8D519
:100F6000181D10601B68198000232361049D16E082
:100F70001368191D11601D68281C00F047F963688B
:100F80002061984200D923612069606004E0251C3B
:100F900042352B7001232361049E00233370079E8A
:100FA00005980096211C09AA069BFFF7A3FE0130B5
:100FB00002D10120404221E02A1C059806992369AC
:100FC000079DA8470130F4D02668B60705D4099BD1
:100FD000E068984212DA181C10E00025E0680999D0
:100FE000431A9D42F3DA221C05980699193201230F
:100FF000079EB0470130DCD00135EFE70BB0F0BD04
:101000002715000038150000C9B28218904204D09C
:1010100003788B4202D00130F8E70020704710B50A
:101020000023934203D0CC5CC4540133F9E710BDD4
:1010300070B5814201D300230CE08C18A042FAD293
:101040008518131C013B0BD351426618F65C6918D6
:10105000CE54F7E7934203D0CC5CC4540133F9E794
:1010600070BD000030B5002940D004390B68002B5A
:1010700000DAC9181E4A1368141C002B02D14B60F9
:10108000116033E099420FD208680A189A4205D1DC
:1010900013685268C01808604A6000E04B60216025
:1010A00024E08A4203D8131C5A68002AF9D11D682B
:1010B0005C198C420BD10968691858181960904264
:1010C00014D114685268091919605A600EE08C42F4
:1010D00002D90C23036009E008680C18944203D17C
:1010E00014685268001908604A60596030BDC046F3
:1010F0006CFCFF1F70B50323CD1C9D430835061CF7
:101100000C2D01D20C2501E0002D3FDB8D423DD39B
:10111000204B1C681A1C211C002913D00868431B93
:101120000DD40B2B02D90B60CC181EE08C4202D1DF
:10113000636813601AE0486860600C1C16E00C1CC1
:101140004968E9E7144C2068002803D1301C00F0FE
:101150004BF82060301C291C00F046F8431C15D0C9
:10116000C41C03239C4384420AD12560201C0B30FD
:101170000722231D9043C31A0BD05A42E25008E0C5
:10118000211A301C00F030F80130EED10C2333600E
:10119000002070BD6CFCFF1F68FCFF1FF8B5061C2B
:1011A0000C1C151C002904D1111CFFF7A3FF041C03
:1011B00018E0002A03D1FFF755FF2C1C12E000F0C5
:1011C0002CF8A8420ED2301C291CFFF793FF071EF3
:1011D00007D0211C2A1CFFF722FF301C211CFFF71F
:1011E00041FF3C1C201CF8BD38B5074C0023051CF2
:1011F000081C236000F066F8431C03D12368002B11
:1012000000D02B6038BDC04620FDFF1F0023C25C0C
:101210000133002AFBD1581E704704390B68181F90
:10122000002B02DAC8581B18181F70477FB5204DD5
:10123000032301950393002301AC02930126301C84
:10124000211CABBE041C1B4B01951C6003230393A4
:10125000042301AC0293301C211CABBE041C164BB2
:1012600001951C6003230393082301AC029301251D
:10127000281C211CABBE041C10490F480C60013413
:1012800001D102680A6000220D4B01246442D4504F
:101290000832A02AF8D1074A0068126809681A6063
:1012A00000225A609860DA6019615A617FBDC046B9
:1012B0004915000074FCFF1F70FCFF1F78FCFF1F26
:1012C00080FCFF1F08B50A4B1A68002A01D1094AA1
:1012D0001A601A6869461018884206D900F00CF89E
:1012E0000C2303600120404201E01860101C08BD7F
:1012F0007CFCFF1F24FDFF1F014B18687047C04690
:1013000064040020000000000000005F00000007EF
:10131000000700147F147F14242A7F2A1223130845
:10132000646236495522500005030000001C22412A
:10133000000041221C00082A1C2A0808083E080850
:101340000050300000080808080800303000002075
:10135000100804023E5149453E00427F4000426170
:101360005149462141454B311814127F10274545FC
:1013700045393C4A49493001710905033649494913
:1013800036064949291E0036360000005636000050
:1013900000081422411414141414412214080002E9
:1013A00001510906324979413E7E1111117E7F4972
:1013B0004949363E414141227F4141221C7F4949F2
:1013C00049417F090901013E414151327F08080826
:1013D0007F00417F41002040413F017F08142241AE
:1013E0007F404040407F0204027F7F0408107F3E20
:1013F0004141413E7F090909063E4151215E7F0975
:10140000192946464949493101017F01013F4040C0
:10141000403F1F2040201F7F2018207F63140814A6
:10142000630304780403615149454300007F41414F
:10143000020408102041417F000004020102044020
:1014400040404040000102040020545454787F483A
:101450004444383844444420384444487F38545441
:101460005418087E090102081454543C7F080404EF
:101470007800447D40002040443D00007F10284417
:1014800000417F40007C041804787C08040478380C
:10149000444444387C14141408081414187C7C0840
:1014A0000404084854545420043F4440203C404025
:1014B000207C1C2040201C3C4030403C442810280C
:1014C000440C5050503C4464544C44000836410095
:1014D00000007F0000004136080008082A1C0808A8
:1014E0001C2A0808F71400000415000025642E25A6
:1014F000303564410A0D0048656C6C6F20776F725F
:101500006C642100416E6F74686572207374726937
:101510006E672E004300232D302B2000686C4C009A
:1015200065666745464700303132333435363738E3
:101530003941424344454600303132333435363741
:101540003839616263646566003A747400000000B3
:10155000000000000000000000000000000000008B
:10156000000000000000000000000000000000007B
:10157000000000000000000000000000000000006B
:10158000000000000000000000000000000000005B
:10159000000000000000000000000000000000004B
:1015A000000000000000000000000000000000003B
:1015B000E90300000000000000000000000000003F
:1015C000000000000000000000000000000000001B
:1015D000000000000000000000000000000000000B
:1015E00000000080C0F070383CFCC4040436B62211
:1015F0000606060A8A969E84C4CC8C9CCCD83830C9
:10160000E0C000000000000000000000000000003A
:1016100000000000000000000000000000000000CA
:1016200000000000000000000000000000000000BA
:1016300000000000000000000000000000000000AA
:10164000000000000000000000000000000000009A
:10165000000000000000000000000000000000E0AA
:10166000F8BE0719D9F8FC3C38383A3E1E0E0F0F69
:101670000E0E0E0E1E1F1C381C0D0D1C3E7F7C789E
:10168000F1C3C74EFCF08000000000000000000025
:10169000000000000000000000000000000000004A
:1016A000000000000000000000000000000000003A
:1016B000000000000000000000000000000000002A
:1016C000000000000000000000000000000000001A
:1016D000000000000000000000000000000000FF0B
:1016E000FFC1C0E0EF7F000000000000000000002C
:1016F00000000000000000000000000000000000EA
:10170000000103FFFDFD0F000000000000000000CD
:1017100000000000000000000000000000000000C9
:1017200000000000000000000000000000000000B9
:1017300000000000000000000000000000000000A9
:101740000000000000000000000000000000000099
:10175000000000000000000000000000C0F00C8C41
:10176000CF8EFEFF010000A0B0909898585858D82E
:101770009898F0F0302060F09090D858589890B039
:10178000302000037FFC0C1C38F0E000000000005B
:101790000000000000000000000000000000000049
:1017A0000000000000000000000000000000000039
:1017B0000000000000000000000000000000000029
:1017C0000000000000000000000000000000000019
:1017D000000000000000000000000000071F306350
:1017E0006340C0FFC0000001010101030686C7E796
:1017F000630301000000000307E7C6860606030333
:1018000003070100F8D3437B381F070000000000E6
:1018100000000000000000000000000000000000C8
:1018200000000000000000000000000000000000B8
:1018300000000000000000000000000000000000A8
:101840000000000000000000000000000000000098
:101850000000000000000000000000000000000088
:1018600000003EFFE3000070C0803CFE3F33707418
:1018700004626F4C78CFEFDA2A606123277E200064
:10188000C07800FE7F0000000000000000000000A3
:101890000000000000000000000000000000000048
:1018A0000000000000000000000000000000000038
:1018B0000000000000000000000000000000000028
:1018C0000000000000000000000000000000000018
:1018D0000000000000000000000000000000008088
:1018E0008000C0213F070E3C78F0C2C7C70C0C0037
:1018F0000C0C0C0C18181C1C08008486F3E160FC0E
:101900003C1E070100000000000000000000000075
:1019100000000000000000000000000000000000C7
:1019200000000000000000000000000000000000B7
:1019300000000000000000000000000000000000A7
:101940000000000000000000000000000000000097
:1019500000000000000000000000004030381F01BF
:10196000001F3F2100003020000001031303033754
:1019700036362322262637230707030115180207C8
:1019800073060C18300040800000000000000000CA
:101990000000000000000000000000000000000047
:1019A0000000000000000000000000000000000037
:1019B000000000000000000050150000701500003D
:1019C0009015000000000000000000000000000072
:1019D00000000000141500000000000000000000DE
:1019E00000000000000000000000000000000000F7
:1019F00000000000000000000000000000000000E7
:101A000000000000000000000000000000000000D6
:081A10000000000004040020A6
:0400000300000410E5
:00000001FF
