:100000006808002079040000F1040000F1040000F9
:1000100000000000000000000000000000000000E0
:10002000000000000000000000000000F1040000DB
:100030000000000000000000F1040000E5040000E2
:10004000F1040000F1040000F1040000F1040000DC
:1000500000000000F1040000F1040000F1040000C1
:10006000F1040000F1040000F1040000F1040000BC
:10007000F1040000F1040000F1040000F1040000AC
:10008000F1040000F1040000F1040000F10400009C
:10009000F1040000F1040000F10400000000000081
:1000A000F1040000F1040000F1040000F10400007C
:1000B000F104000000000000F1040000F104000061
:10040000FFFFFFFFFFFFFFFFFFFFFFFFFEFFFFFFFD
:1004100080B584B000AF786000F076FD031CFB600F
:10042000C04600F071FD021CFB68D21A7B689A423C
:10043000F7D3BD4604B080BD80B582B000AF786010
:100440007A680B4B9A4201D901230CE0094B7A6878
:100450001202120A013A5A60064B00229A60054BBA
:1004600007221A600023181CBD4602B080BDC0469A
:10047000FFFFFF0010E000E080B582B000AF00F0A9
:1004800025FD124B7B60124B3B6007E03B681A1D59
:100490003A607A68111D796012681A603A680D4BEB
:1004A0009A42F3D30C4B3B6004E03B681A1D3A6060
:1004B00000221A603A68094B9A42F6D3084B181C7E
:1004C000FFF7BAFF00F0CCFAFEE7C046081A0000BA
:1004D000000000206804002000FCFF1FD0FCFF1F6C
:1004E00080BB000080B500AF00F002FDBD4680BDBE
:1004F00080B500AFFEE7C04680B584B000AF78603D
:100500000A4B1B68002B02D1084B094A1A60074BA3
:100510001B68FB60054B1A687B68D218034B1A6096
:10052000FB68181CBD4604B080BDC046A8FCFF1F78
:10053000D0FCFF1F80B500AF134A88235B01002168
:10054000D150114A1049114BCB58802189001943D1
:100550000E4BD1500E4B80225200DA600D4B082218
:100560005A600C4B0B4A526908210A435A61084BE6
:100570000422FF321A61074B064A526910218A434E
:100580005A61BD4680BDC04600700440381000006E
:100590000090044000F00F4080B500AF1F4A1F4993
:1005A0001F4BCB588021C90019431D4BD1501D4B07
:1005B000C0229200DA601B4BC02292001A61174AD7
:1005C0001649194BCB588021C9041943164BD150F9
:1005D000124A1249154BCB588021C9001943134BBD
:1005E000D150134B124A927AD2B21F218A43D2B20F
:1005F0000F210A43D2B29A720D4B5B780C4B1A2230
:100600005A700B4B00221A70094B094AD278D2B2A9
:100610000C210A43D2B2DA70BD4680BD007004409E
:100620003810000000A00440041000003410000046
:1006300000A0064080B500AF114A1149114BCB58BC
:100640008021C90019430F4BD1500D4A0C490E4B64
:10065000CB588021090519430B4BD1500B4B052278
:100660009A600A4B0422DA60084B00221A62074B98
:1006700000225A62054B04221A60BD4680BDC04666
:1006800000700440381000003C10000000B003402F
:10069000F0B583B000AF00F037FC021C6E4B1B6856
:1006A000D31A0A2B00D8D4E06C4B1B687B607A68A5
:1006B0008023134000D1CCE0694B1B78191C684B98
:1006C0001B781A1C67485023542462438218D3189D
:1006D0001B785A1C644B134004D5013B2022524224
:1006E00013430133DAB25F48502354246143411865
:1006F000CB181A705A4B1B781A1C594B1B78191CB3
:10070000584B54204143C958554B1B781C1C544B23
:100710001B78181C534D5023542670432818C318B7
:100720001B78181C4F4B2A256C43201808304000BA
:10073000C35AC91A4B4B54204243D150484B1B78E3
:10074000181C474B1B781A1C4649502354246243FB
:100750008A18D3181B781A1C404B1B699BB21B05C7
:100760001B0D99B23F4B2A24604382180832520075
:10077000D1523B4B1B781A1C394B1B78191C394B37
:1007800054204143C958364B1B781C1C344B1B78F2
:10079000181C344D5023542670432818C3181B7856
:1007A000181C304B2A256C43201808304000C35ACF
:1007B000C9182C4B54204243D150294B1B781A1C8A
:1007C000284B54214A43D3585B097B607B68274AF6
:1007D00053437B607B68181C254900F09FFB031C7A
:1007E0007B601F4B1B781C1C7B68181C214900F088
:1007F00095FB031C9AB21B480823542161434118FE
:10080000CB181A80164B1B781C1C7B68181C1949C6
:1008100000F084FB031C7A68D21A12495423634304
:10082000CB180C331A6000F06FFB021C0A4B1A60E5
:100830000B4B1B78002B06D1084B05221A60084B86
:1008400001221A7005E0054B04221A60044B0022B5
:100850001A70BD4603B0F0BDACFCFF1F00B00340F2
:10086000B0FCFF1F00FCFF1F1F00008010090500E7
:10087000FF0F0000A086010080B500AF00F044FB30
:10088000021C074B1B68D31AFA2B07D900F03CFB5C
:10089000021C034B1A60034B0822DA60BD4680BD80
:1008A000B4FCFF1F00F00F4080B584B000AF78604B
:1008B00039600023FB6010E00B4B7968FA688A18F6
:1008C0001278DA71C046084B1B79DBB2DBB25BB23F
:1008D000002BF8DAFB680133FB60FA683B689A4248
:1008E000EAD3BD4604B080BD00A0064080B58AB002
:1008F00000AF404B1B697B623F4B1B79012B14D02F
:10090000022B40D0002B02D03B4B00221A717A6A96
:100910001023134008D1384B01221A7100F0F4FA69
:10092000021C354B1A603FE03EE07A6A1023134008
:1009300003D0314B00221A7124E000F0E5FA021CCA
:100940002D4B1B79D31A642B1CD92C4B1B891A1CD9
:100950002A4BDB68381C2A4900F030FB031C3B6241
:100960003B6A002B05D03A1C3B6A101C191CFFF790
:100970009BFF00F0C9FA021C1F4B1A601E4B02229B
:100980001A7111E010E07A6A102313400BD000F0C6
:10099000BBFA021C184B1B79D31A642B03D9164BD4
:1009A00000221A71FFE7C046164B1B79DBB21A1CF6
:1009B000202313401AD0134BDB79DBB27B627B6AB6
:1009C0003F2B13D10D4B1B891A1C0C4BDB68381CB9
:1009D0000B4900F0F3FA031C3B623B6A002B05D085
:1009E0003A1C3B6A101C191CFFF75EFFBD460AB09B
:1009F00080BDC04600F00F40B8FCFF1F00FCFF1F89
:100A0000B819000000A0064080B586B000AF00F025
:100A10007BFA021C0F4B1B68D21AFA235B009A4226
:100A200015D900F071FA021C0A4B1A600A4B1B8997
:100A30001A1C094BDB68381D084900F0BFFA00207A
:100A400000F044F93B1D181C002100F05FF9BD4681
:100A500006B080BD0000002000FCFF1FC41900008C
:100A600080B500AFFFF766FDFFF796FDFFF7E2FDEB
:100A700000F042F8FFF700FFFFF7C6FFFFF736FF71
:100A8000FFF706FEF6E7C04680B582B000AF021C55
:100A9000FB1D1A70C046084BDB78DBB21A1C202302
:100AA0001340F8D0054B40229A60034BFA1D127890
:100AB0005A71BD4602B080BD0060074000F00F4093
:100AC00080B582B000AF021CFB1D1A70C046084BF7
:100AD000DB78DBB21A1C20231340F8D0054B4022F0
:100AE0005A60034BFA1D12785A71BD4602B080BDA0
:100AF0000060074000F00F4080B582B000AF694A47
:100B00006849694BCB58802189001943664BD15005
:100B1000644A6449644BCB588021C9001943624B35
:100B2000D150624B802252005A61614B20229A6060
:100B30005F4B5F4A526920210A435A615D4B802214
:100B400052009A615C4B40229A605B4B5A4A526950
:100B500040210A435A61574BC02292005A61554BBB
:100B6000C0229200DA61514BC02292001A604D4AB5
:100B70004C49524BCB588021C90319434F4BD1509C
:100B80004F4B4F4A1278D2B21A210A43D2B21A708E
:100B90004B4B4B4A5278D2B210210A43D2B25A7010
:100BA000474B03229A70464B454A1278D2B24021F5
:100BB0000A43D2B21A700A20FFF72AFC3C4B2022CB
:100BC0009A600A20FFF724FC394B20225A60052046
:100BD000FFF71EFCAE20FFF757FFD520FFF754FFAD
:100BE0008020FFF751FFA820FFF74EFF3F20FFF7BF
:100BF0004BFFD320FFF748FF0020FFF745FF4020C1
:100C0000FFF742FF8D20FFF73FFF1420FFF73CFF67
:100C10002020FFF739FF0020FFF736FFA020FFF765
:100C200033FFC020FFF730FFDA20FFF72DFF12203F
:100C3000FFF72AFF8120FFF727FFCF20FFF724FFD0
:100C4000D920FFF721FFF120FFF71EFFDB20FFF780
:100C50001BFF4020FFF718FFA420FFF715FFA62079
:100C6000FFF712FFAF20FFF70FFF0020FFF70CFF89
:100C70001020FFF709FF4020FFF706FF00237B60ED
:100C800009E0104A7B68D3181B78181CFFF718FF7F
:100C90007B6801337B607A680B4B9A42F1D9BD4681
:100CA00002B080BD007004403810000000A0044075
:100CB00040F00F400090044000F00F40341000005E
:100CC0000060074004000020FF03000080B582B0F0
:100CD00000AF021CFB1D1A70FB1D1A78072313407E
:100CE000DAB2FB1DD2001A70FB1DFA1D12784021EA
:100CF0008A1A1A70D320FFF7C7FEFB1D1B78181C39
:100D0000FFF7C2FEBD4602B080BDC04680B584B0CC
:100D100000AF786039600023FB600020FFF7B4FE6D
:100D20001020FFF7B1FE4020FFF7AEFE36E07B68F3
:100D30001B78203B5F2B1CDC7B681B781F2B18D992
:100D40000023BB6011E07B681B781A1C203A131C3F
:100D50009B009B181A1CBB68D318224AD35C181C32
:100D6000FFF7AEFEBB680133BB60BB68042BEAD95A
:100D70000BE00023BB6005E00020FFF7A1FEBB688D
:100D80000133BB60BB68042BF6D90020FFF798FE47
:100D90007B6801337B60FB680133FB607B681B78F9
:100DA000002B09D0FB685A1C131C5B009B181B010D
:100DB0001A1C0D4B9A42BAD9FA68131C5B009B1897
:100DC0001B0180229201D31ADB08FB6002E00020A5
:100DD000FFF776FEFB685A1EFA60002BF7D1BD467E
:100DE00004B080BDD8170000FF1F000080B584B09C
:100DF00000AF786039600023FB600020FFF744FEFD
:100E00001020FFF741FE4020FFF73EFE36E07B68F2
:100E10001B78203B5F2B1CDC7B681B781F2B18D9B1
:100E20000023BB6011E07B681B781A1C203A131C5E
:100E30009B009B181A1CBB68D318224AD35C181C51
:100E4000FFF73EFEBB680133BB60BB68042BEAD9E9
:100E50000BE00023BB6005E00020FFF731FEBB681C
:100E60000133BB60BB68042BF6D90020FFF728FED6
:100E70007B6801337B60FB680133FB607B681B7818
:100E8000002B09D0FB685A1C131C5B009B181B012C
:100E90001A1C0D4B9A42BAD9FA68131C5B009B18B6
:100EA0001B0180229201D31ADB08FB6002E00020C4
:100EB000FFF706FEFB685A1EFA60002BF7D1BD460D
:100EC00004B080BDD8170000FF1F000080B500AF40
:100ED000064B064AD278D1B21F220A40D2B2602114
:100EE00049420A43D2B2DA70BD4680BD0040064096
:100EF00080B500AF034B1B685A1C024B1A60BD46FD
:100F000080BDC046C0FCFF1F80B500AF024B1B6810
:100F1000181CBD4680BDC046C0FCFF1F002934D050
:100F20000123002210B488422CD301242407A142BB
:100F300004D2814202D209011B01F8E7E400A14278
:100F400004D2814202D249005B00F8E7884201D313
:100F5000401A1A434C08A04202D3001B5C082243EB
:100F60008C08A04202D3001B9C082243CC08A0425C
:100F700002D3001BDC082243002803D01B0901D048
:100F80000909E3E7101C10BC7047002801D00020BD
:100F9000C04307B4024802A14018029003BDC046F6
:100FA000190000000029F0D003B5FFF7B9FF0EBC0F
:100FB0004243891A1847C0467047C0460EB400B570
:100FC0009CB01DAB04CB822202A992008A810A4AFE
:100FD00002908A604A6101225242CA81074A08612E
:100FE00010681D9A019300F06BF8029A00231370A9
:100FF0001CB008BC03B01847FFFFFF7F640400204B
:10100000F0B58D6885B0071C0C1C03920193AB42B0
:1010100045D390228B89D20013423DD062690326CA
:10102000564309692068F20F401A96190290021C73
:101030000198013212187610964200D2161C381C04
:101040005A050FD5311C00F02BFB051E13D0029A58
:10105000216900F0BAFAA289184B13408022134389
:10106000A38111E0321C00F06FFB051E0CD1381C6F
:10107000216900F0CDFA0C233B60A3894022134381
:101080000120A381404217E0029B2561ED182560F5
:101090006661019DF61AA6600198A84200D2019DE2
:1010A0002A1C2068039900F099FAA2680020531BBB
:1010B000A36023685D19256005B0F0BD7FFBFFFFCD
:1010C000F0B59FB005938B8903900E1C171C190671
:1010D0000FD53269002A0CD1402100F0E1FA3060CE
:1010E0003061002803D103990C230B60C9E0402331
:1010F000736106AD00236B6120236B763023AB76E2
:101100003C1C2378002B03D1E21B029211D003E098
:10111000252BF9D00134F4E70398311C3A1C029BCB
:10112000FFF76EFF013000D1A6E06969029A8B18C3
:101130006B612378002B00D19EE0012252426A604D
:101140006A4600235B3201342B60EB60AB601370A6
:10115000AB654E4F2178381C052200F02BFA002891
:1011600007D0C71B2B680120B84018432860013402
:10117000EFE72B68D90603D56A4620215B32117050
:101180001A0703D56A462B215B32117022782A2A6E
:1011900001D0099B0EE0059A111D12680591002AE5
:1011A00001DB099204E05242EA60022213432B6001
:1011B000013409E02278303A092A04D80A214B4345
:1011C00001349B18F6E7099323782E2B18D1637806
:1011D0002A2B09D1059B02341A1D1B680592002B8E
:1011E0000DDA01235B420AE0013400232278303A11
:1011F000092A04D80A214B4301349B18F6E70793C8
:10120000234F2178381C032200F0D4F9002806D09F
:10121000C71B2B684020B840184328600134217850
:101220001C480622671C297600F0C4F9002812D059
:10123000194B002B06D1059B072207339343083334
:10124000059314E005AB00930398291C321C134B43
:1012500000E000BF07E005AB00930398291C321C97
:101260000E4B00F091F804900499013104D06A69A2
:10127000049953186B6143E7B3895A0601D40B985C
:1012800001E0012040421FB0F0BDC046D21900006D
:10129000D8190000DC190000000000000110000057
:1012A000F7B5151C01930A698B68061C0C1C934248
:1012B00000DA131C221C2B6043321278002A01D062
:1012C00001332B602068800602D52B6802332B6027
:1012D000216806270F401FD0231C43331B785A1E5A
:1012E0009341226892061FD5E11840313020C87022
:1012F000211C5A1C45310978A21840320233D170A2
:1013000012E0221C301C019919320123089FB847B2
:10131000013011D0009F01370097E0682968009FD5
:10132000431A9F42EDDBD7E7221C301C0199433260
:10133000089FB847013002D10120404223E02068D5
:1013400006212B68E26801400025042903D1D51A43
:10135000EB43DB171D40A26823699A4201DDD31AD3
:10136000ED1800270097009FAF420BDA221C301CBB
:1013700001991A320123089FB8470130DCD0009F41
:101380000137EFE70020FEBDF0B58BB007930D1CD1
:101390000B7E4335069205900C1C109A04956E2B1B
:1013A00000D1A7E011D8632B22D009D8002B00D19F
:1013B000B0E0582B00D0C0E045310B707B4D4EE0C3
:1013C000642B1CD0692B1AD0B7E0732B00D1A5E099
:1013D00009D86F2B29D0702B00D0AEE00E682023E7
:1013E00033430B6036E0752B1FD0782B32D0A4E04E
:1013F00013680D1C191D423511601B689FE02168A0
:1014000013680E0603D5191D11601E6805E0480615
:10141000F9D5191D116000215E5E644B002E3BDA88
:10142000049D2D2276422A7036E0216813680E064C
:1014300003D5191D11601E6804E04806F9D5191D71
:101440001E881160594B227E039308276F2A1ED0F5
:101450000A271CE0231C78214533554D197011686B
:101460002368081D039510601E0601D50E6802E072
:101470005806FBD50E88D90702D5202213432360D6
:101480001027002E03D1226820239A432260231CB8
:10149000002243331A7001E003930A276368A360B4
:1014A000002B03DB2568042295432560002E02D122
:1014B000049D002B0ED0049D301C391CFFF772FDDB
:1014C0000398013D435C301C2B70391CFFF726FD4F
:1014D000061EF1D1082F09D12168C90706D5626817
:1014E00023699A4202DC013D30232B70049E731B5A
:1014F00023612AE0086813684969050604D5181DA8
:1015000010601B68196005E04606F8D5181D1060CC
:101510001B68198000232361049D16E01368191DC0
:1015200011601D68281C00F047F96368206198422B
:1015300000D923612069606004E0251C42352B70CE
:1015400001232361049E00233370079E05980096B3
:10155000211C09AA069BFFF7A3FE013002D101203E
:10156000404221E02A1C059806992369079DA84757
:101570000130F4D02668B60705D4099BE06898428C
:1015800012DA181C10E00025E0680999431A9D4200
:10159000F3DA221C0598069919320123079EB047F9
:1015A0000130DCD00135EFE70BB0F0BDE3190000EE
:1015B000F4190000C9B28218904204D003788B421B
:1015C00002D00130F8E70020704710B500239342A5
:1015D00003D0CC5CC4540133F9E710BD70B581422F
:1015E00001D300230CE08C18A042FAD28518131CFA
:1015F000013B0BD351426618F65C6918CE54F7E7ED
:10160000934203D0CC5CC4540133F9E770BD0000B1
:1016100030B5002940D004390B68002B00DAC91816
:101620001E4A1368141C002B02D14B60116033E07A
:1016300099420FD208680A189A4205D11368526875
:10164000C01808604A6000E04B60216024E08A42D4
:1016500003D8131C5A68002AF9D11D685C198C4202
:101660000BD10968691858181960904214D1146890
:101670005268091919605A600EE08C4202D90C2395
:10168000036009E008680C18944203D1146852689A
:10169000001908604A60596030BDC046C8FCFF1F91
:1016A00070B50323CD1C9D430835061C0C2D01D2BB
:1016B0000C2501E0002D3FDB8D423DD3204B1C6803
:1016C0001A1C211C002913D00868431B0DD40B2BB6
:1016D00002D90B60CC181EE08C4202D16368136003
:1016E0001AE0486860600C1C16E00C1C4968E9E7C9
:1016F000144C2068002803D1301C00F04BF8206007
:10170000301C291C00F046F8431C15D0C41C0323D0
:101710009C4384420AD12560201C0B300722231DE4
:101720009043C31A0BD05A42E25008E0211A301CF1
:1017300000F030F80130EED10C233360002070BD92
:10174000C8FCFF1FC4FCFF1FF8B5061C0C1C151CB1
:10175000002904D1111CFFF7A3FF041C18E0002A84
:1017600003D1FFF755FF2C1C12E000F02CF8A84223
:101770000ED2301C291CFFF793FF071E07D0211C37
:101780002A1CFFF722FF301C211CFFF741FF3C1CE5
:10179000201CF8BD38B5074C0023051C081C23602D
:1017A000FEF7AAFE431C03D12368002B00D02B6058
:1017B00038BDC046CCFCFF1F0023C25C0133002AA9
:1017C000FBD1581E704704390B68181F002B02DA32
:1017D000C8581B18181F7047000000000000005F69
:1017E00000000007000700147F147F14242A7F2ABA
:1017F0001223130864623649552250000503000085
:10180000001C2241000041221C00082A1C2A080852
:10181000083E08080050300000080808080800309A
:1018200030000020100804023E5149453E00427F2E
:10183000400042615149462141454B311814127F05
:101840001027454545393C4A49493001710905038E
:101850003649494936064949291E003636000000F6
:1018600056360000000814224114141414144122A6
:101870001408000201510906324979413E7E1111D6
:10188000117E7F494949363E414141227F414122F3
:101890001C7F494949417F090901013E41415132BB
:1018A0007F0808087F00417F41002040413F017FC1
:1018B000081422417F404040407F0204027F7F04A1
:1018C00008107F3E4141413E7F090909063E4151D2
:1018D000215E7F09192946464949493101017F01A5
:1018E000013F4040403F1F2040201F7F2018207FA5
:1018F00063140814630304780403615149454300E9
:10190000007F4141020408102041417F0000040291
:1019100001020440404040400001020400205454B1
:1019200054787F4844443838444444203844444838
:101930007F3854545418087E090102081454543C4A
:101940007F0804047800447D40002040443D0000AE
:101950007F10284400417F40007C041804787C08F4
:1019600004047838444444387C14141408081414CB
:10197000187C7C080404084854545420043F444014
:10198000203C4040207C1C2040201C3C4030403CFF
:1019900044281028440C5050503C4464544C44009B
:1019A0000836410000007F000000413608000808AA
:1019B0002A1C08081C2A080825642E253035644195
:1019C0000A0D000025642E2530356441000000001A
:1019D0004300232D302B2000686C4C006566674562
:1019E0004647003031323334353637383941424397
:1019F0004445460030313233343536373839616248
:051A000063646566004F
:101A0800E9030000000000000000000000000000E2
:101A180000000000000000000000000000000000BE
:101A280000000000000000000000000000000000AE
:101A380000000080C0F070383CFCC4040436B622B4
:101A48000606060A8A969E84C4CC8C9CCCD838306C
:101A5800E0C00000000000000000000000000000DE
:101A6800000000000000000000000000000000006E
:101A7800000000000000000000000000000000005E
:101A8800000000000000000000000000000000004E
:101A9800000000000000000000000000000000003E
:101AA800000000000000000000000000000000E04E
:101AB800F8BE0719D9F8FC3C38383A3E1E0E0F0F0D
:101AC8000E0E0E0E1E1F1C381C0D0D1C3E7F7C7842
:101AD800F1C3C74EFCF080000000000000000000C9
:101AE80000000000000000000000000000000000EE
:101AF80000000000000000000000000000000000DE
:101B080000000000000000000000000000000000CD
:101B180000000000000000000000000000000000BD
:101B2800000000000000000000000000000000FFAE
:101B3800FFC1C0E0EF7F00000000000000000000CF
:101B4800000000000000000000000000000000008D
:101B5800000103FFFDFD0F00000000000000000071
:101B6800000000000000000000000000000000006D
:101B7800000000000000000000000000000000005D
:101B8800000000000000000000000000000000004D
:101B9800000000000000000000000000000000003D
:101BA800000000000000000000000000C0F00C8CE5
:101BB800CF8EFEFF010000A0B0909898585858D8D2
:101BC8009898F0F0302060F09090D858589890B0DD
:101BD800302000037FFC0C1C38F0E00000000000FF
:101BE80000000000000000000000000000000000ED
:101BF80000000000000000000000000000000000DD
:101C080000000000000000000000000000000000CC
:101C180000000000000000000000000000000000BC
:101C2800000000000000000000000000071F3063F3
:101C38006340C0FFC0000001010101030686C7E739
:101C4800630301000000000307E7C68606060303D6
:101C580003070100F8D3437B381F0700000000008A
:101C6800000000000000000000000000000000006C
:101C7800000000000000000000000000000000005C
:101C8800000000000000000000000000000000004C
:101C9800000000000000000000000000000000003C
:101CA800000000000000000000000000000000002C
:101CB80000003EFFE3000070C0803CFE3F337074BC
:101CC80004626F4C78CFEFDA2A606123277E200008
:101CD800C07800FE7F000000000000000000000047
:101CE80000000000000000000000000000000000EC
:101CF80000000000000000000000000000000000DC
:101D080000000000000000000000000000000000CB
:101D180000000000000000000000000000000000BB
:101D2800000000000000000000000000000000802B
:101D38008000C0213F070E3C78F0C2C7C70C0C00DA
:101D48000C0C0C0C18181C1C08008486F3E160FCB1
:101D58003C1E070100000000000000000000000019
:101D6800000000000000000000000000000000006B
:101D7800000000000000000000000000000000005B
:101D8800000000000000000000000000000000004B
:101D9800000000000000000000000000000000003B
:101DA80000000000000000000000004030381F0163
:101DB800001F3F21000030200000010313030337F8
:101DC800363623222626372307070301151802076C
:101DD80073060C183000408000000000000000006E
:101DE80000000000000000000000000000000000EB
:101DF80000000000000000000000000000000000DB
:101E080000000000000000000000000000000000CA
:101E180000000000000000000000000000000000BA
:101E280000000000D01900000000000000000000C1
:101E3800000000000000000000000000000000009A
:101E4800000000000000000000000000000000008A
:101E5800000000000000000000000000000000007A
:081E680000000000040400204A
:0400000300000410E5
:00000001FF
