:100000002004002079040000F1040000F104000045
:1000100000000000000000000000000000000000E0
:10002000000000000000000000000000F1040000DB
:100030000000000000000000F1040000E5040000E2
:10004000F1040000F1040000F1040000F1040000DC
:1000500000000000F1040000F1040000F1040000C1
:10006000F1040000F1040000F1040000F1040000BC
:10007000F1040000F1040000F1040000F1040000AC
:10008000F1040000F1040000F1040000F10400009C
:10009000F1040000F1040000F10400000000000081
:1000A000F1040000F1040000F1040000F10400007C
:1000B000F104000000000000F1040000F104000061
:10040000FFFFFFFFFFFFFFFFFFFFFFFFFEFFFFFFFD
:1004100080B584B000AF786000F0F6FB031CFB6091
:10042000C04600F0F1FB021CFB68D21A7B689A42BE
:10043000F7D3BD4604B080BD80B582B000AF786010
:100440007A680B4B9A4201D901230CE0094B7A6878
:100450001202120A013A5A60064B00229A60054BBA
:1004600007221A600023181CBD4602B080BDC0469A
:10047000FFFFFF0010E000E080B582B000AF00F0A9
:10048000A5FB124B7B60124B3B6007E03B681A1DDB
:100490003A607A68111D796012681A603A680D4BEB
:1004A0009A42F3D30C4B3B6004E03B681A1D3A6060
:1004B00000221A603A68094B9A42F6D3084B181C7E
:1004C000FFF7BAFF00F05EF9FEE7C0462C0E000011
:1004D00000FCFF1F04000020040000201C0000207E
:1004E00080BB000080B500AF00F082FBBD4680BD40
:1004F00080B500AFFEE7C04680B500AF134A882341
:100500005B010021D150114A1049114BCB58802179
:10051000890019430E4BD1500E4B80225200DA60F5
:100520000D4B08225A600C4B0B4A526908210A43B2
:100530005A61084B0422FF321A61074B064A52697E
:1005400010218A435A61BD4680BDC04600700440F8
:10055000381000000090044000F00F4080B500AF5C
:100560001F4A1F491F4BCB588021C90019431D4BFF
:10057000D1501D4BC0229200DA601B4BC02292006A
:100580001A61174A1649194BCB588021C9041943DF
:10059000164BD150124A1249154BCB588021C90035
:1005A0001943134BD150134B124A927AD2B21F21E6
:1005B0008A43D2B20F210A43D2B29A720D4B5B78B2
:1005C0000C4B1A225A700B4B00221A70094B094A25
:1005D000D278D2B20C210A43D2B2DA70BD4680BDC5
:1005E000007004403810000000A004400410000017
:1005F0003410000000A0064080B500AFBD4680BDAD
:1006000080B500AF00F000FB021C074B1B68D31A3B
:10061000FA2B07D900F0F8FA021C034B1A60034BBF
:100620000822DA60BD4680BD0400002000F00F40C3
:1006300080B584B000AF786039600023FB6010E0C3
:100640000B4B7968FA688A181278DA71C046084B41
:100650001B79DBB2DBB25BB2002BF8DAFB6801334B
:10066000FB60FA683B689A42EAD3BD4604B080BD9D
:1006700000A0064080B582B000AF204B1B697B60B4
:100680001F4B1B79012B14D0022B2CD0002B02D036
:100690001B4B00221A717A681023134008D1184BA3
:1006A00001221A7100F0B0FA021C154B1A6022E008
:1006B00021E07A681023134003D0114B00221A71F5
:1006C00010E000F0A1FA021C0D4B1B79D31A642B29
:1006D00008D90C4B181C0621FFF7AAFF084B022271
:1006E0001A7108E007E07A681023134002D0044B27
:1006F00000221A71C046BD4602B080BD00F00F4016
:1007000008000020FC0D000080B582B000AF3B1C4B
:10071000184A03CA03C300F077FA021C164B1B6881
:10072000D31AFA2B22D900F06FFA021C124B1A606E
:10073000124B1B785A1CD1B2104A1170181C00F0D1
:1007400045F90F4B1A683B1C9200D358181C002126
:1007500000F05CF90A4B1B685A1C094B1A60084BE5
:100760001B68012B02DD064B00221A60BD4602B059
:1007700080BDC046240E000000FCFF1F10000020BA
:100780001400002080B500AFFFF7B6FEFFF7E6FECD
:1007900000F038F8FFF734FFFFF7B6FFFFF76AFF06
:1007A000F8E7C04680B582B000AF021CFB1D1A708E
:1007B000C046074BDB78DBB21A1C20231340F8D06D
:1007C000034BFA1D12785A71BD4602B080BDC04677
:1007D0000060074080B582B000AF021CFB1D1A709C
:1007E000C046074BDB78DBB21A1C20231340F8D03D
:1007F000034BFA1D12785A71BD4602B080BDC04647
:100800000060074080B582B000AF664A6549664B1C
:10081000CB58802189001943634BD150614A61490B
:10082000614BCB588021C90019435F4BD1505F4BBE
:10083000802252005A615E4B20229A605C4B5C4AD7
:10084000526920210A435A615A4B802252009A6110
:10085000594B40229A60584B574A526940210A43EB
:100860005A61544BC02292005A61524BC0229200EE
:10087000DA614E4BC02292001A604A4A49494F4BF6
:10088000CB588021C90319434C4BD1504C4B4C4A97
:100890001278D2B21A210A43D2B21A70484B484A8F
:1008A0005278D2B210210A43D2B25A70444B03227A
:1008B0009A70434B424A1278D2B240210A43D2B2D4
:1008C0001A700120FFF7A4FD0A20FFF7A1FD052003
:1008D000FFF79EFDAE20FFF765FFD520FFF762FF13
:1008E0008020FFF75FFFA820FFF75CFF3F20FFF7A6
:1008F00059FFD320FFF756FF0020FFF753FF40209A
:10090000FFF750FF8D20FFF74DFF1420FFF74AFF40
:100910002020FFF747FF0020FFF744FFA020FFF74C
:1009200041FFC020FFF73EFFDA20FFF73BFF122018
:10093000FFF738FF8120FFF735FFCF20FFF732FFA9
:10094000D920FFF72FFFF120FFF72CFFDB20FFF767
:1009500029FF4020FFF726FFA420FFF723FFA62052
:10096000FFF720FFAF20FFF71DFF0020FFF71AFF62
:100970001020FFF717FF4020FFF714FF00237B60D4
:1009800009E0104A7B68D3181B78181CFFF722FF78
:100990007B6801337B607A680B4B9A42F1D9BD4684
:1009A00002B080BD007004403810000000A0044078
:1009B00040F00F400090044000F00F403410000061
:1009C0000060074004FCFF1FFF03000080B582B0F9
:1009D00000AF021CFB1D1A70FB1D1A780723134081
:1009E000DAB2FB1DD2001A70FB1DFA1D12784021ED
:1009F0008A1A1A70D320FFF7D5FEFB1D1B78181C2E
:100A0000FFF7D0FEBD4602B080BDC04680B584B0C1
:100A100000AF786039600023FB600020FFF7C2FE62
:100A20001020FFF7BFFE4020FFF7BCFE36E07B68DA
:100A30001B78203B5F2B1CDC7B681B781F2B18D995
:100A40000023BB6011E07B681B781A1C203A131C42
:100A50009B009B181A1CBB68D318224AD35C181C35
:100A6000FFF7B8FEBB680133BB60BB68042BEAD953
:100A70000BE00023BB6005E00020FFF7ABFEBB6886
:100A80000133BB60BB68042BF6D90020FFF7A2FE40
:100A90007B6801337B60FB680133FB607B681B78FC
:100AA000002B09D0FB685A1C131C5B009B181B0110
:100AB0001A1C0D4B9A42BAD9FA68131C5B009B189A
:100AC0001B0180229201D31ADB08FB6002E00020A8
:100AD000FFF780FEFB685A1EFA60002BF7D1BD4677
:100AE00004B080BD1C0C0000FF1F000080B584B066
:100AF00000AF786039600023FB600020FFF752FEF2
:100B00001020FFF74FFE4020FFF74CFE36E07B68D9
:100B10001B78203B5F2B1CDC7B681B781F2B18D9B4
:100B20000023BB6011E07B681B781A1C203A131C61
:100B30009B009B181A1CBB68D318224AD35C181C54
:100B4000FFF748FEBB680133BB60BB68042BEAD9E2
:100B50000BE00023BB6005E00020FFF73BFEBB6815
:100B60000133BB60BB68042BF6D90020FFF732FECF
:100B70007B6801337B60FB680133FB607B681B781B
:100B8000002B09D0FB685A1C131C5B009B181B012F
:100B90001A1C0D4B9A42BAD9FA68131C5B009B18B9
:100BA0001B0180229201D31ADB08FB6002E00020C7
:100BB000FFF710FEFB685A1EFA60002BF7D1BD4606
:100BC00004B080BD1C0C0000FF1F000080B500AF0A
:100BD000064B064AD278D1B21F220A40D2B2602117
:100BE00049420A43D2B2DA70BD4680BD0040064099
:100BF00080B500AF034B1B685A1C024B1A60BD4600
:100C000080BDC0461800002080B500AF024B1B68B5
:100C1000181CBD4680BDC046180000200000000022
:100C20000000005F00000007000700147F147F141D
:100C3000242A7F2A12231308646236495522500061
:100C400005030000001C2241000041221C00082A6C
:100C50001C2A0808083E0808005030000008080850
:100C60000808003030000020100804023E514945B9
:100C70003E00427F400042615149462141454B318F
:100C80001814127F1027454545393C4A494930011F
:100C9000710905033649494936064949291E003676
:100CA00036000000563600000008142241141414C7
:100CB00014144122140800020151090632497941F5
:100CC0003E7E1111117E7F494949363E4141412204
:100CD0007F4141221C7F494949417F090901013E69
:100CE000414151327F0808087F00417F4100204088
:100CF000413F017F081422417F404040407F020471
:100D0000027F7F0408107F3E4141413E7F0909096F
:100D1000063E4151215E7F0919294646494949311C
:100D200001017F01013F4040403F1F2040201F7FC5
:100D30002018207F631408146303047804036151AE
:100D400049454300007F4141020408102041417F92
:100D5000000004020102044040404040000102043F
:100D60000020545454787F48444438384444442044
:100D7000384444487F3854545418087E0901020806
:100D80001454543C7F0804047800447D4000204003
:100D9000443D00007F10284400417F40007C04183F
:100DA00004787C0804047838444444387C141414CF
:100DB00008081414187C7C0804040848545454206F
:100DC000043F4440203C4040207C1C2040201C3CF0
:100DD0004030403C44281028440C5050503C44645F
:100DE000544C44000836410000007F0000004136AA
:100DF000080008082A1C08081C2A08084E6F6168A9
:100E00000A0D000048656C6C6F20776F726C64216E
:100E100000000000416E6F7468657220737472691F
:0C0E20006E672E00040E0000140E00008F
:100E2C00E9030000000000000000000000000000CA
:100E3C0000000000000000000000000000000000A6
:100E4C000000000000000000000000000000000096
:100E5C0000000080C0F070383CFCC4040436B6229C
:100E6C000606060A8A969E84C4CC8C9CCCD8383054
:100E7C00E0C00000000000000000000000000000C6
:100E8C000000000000000000000000000000000056
:100E9C000000000000000000000000000000000046
:100EAC000000000000000000000000000000000036
:100EBC000000000000000000000000000000000026
:100ECC00000000000000000000000000000000E036
:100EDC00F8BE0719D9F8FC3C38383A3E1E0E0F0FF5
:100EEC000E0E0E0E1E1F1C381C0D0D1C3E7F7C782A
:100EFC00F1C3C74EFCF080000000000000000000B1
:100F0C0000000000000000000000000000000000D5
:100F1C0000000000000000000000000000000000C5
:100F2C0000000000000000000000000000000000B5
:100F3C0000000000000000000000000000000000A5
:100F4C00000000000000000000000000000000FF96
:100F5C00FFC1C0E0EF7F00000000000000000000B7
:100F6C000000000000000000000000000000000075
:100F7C00000103FFFDFD0F00000000000000000059
:100F8C000000000000000000000000000000000055
:100F9C000000000000000000000000000000000045
:100FAC000000000000000000000000000000000035
:100FBC000000000000000000000000000000000025
:100FCC00000000000000000000000000C0F00C8CCD
:100FDC00CF8EFEFF010000A0B0909898585858D8BA
:100FEC009898F0F0302060F09090D858589890B0C5
:100FFC00302000037FFC0C1C38F0E00000000000E7
:10100C0000000000000000000000000000000000D4
:10101C0000000000000000000000000000000000C4
:10102C0000000000000000000000000000000000B4
:10103C0000000000000000000000000000000000A4
:10104C00000000000000000000000000071F3063DB
:10105C006340C0FFC0000001010101030686C7E721
:10106C00630301000000000307E7C68606060303BE
:10107C0003070100F8D3437B381F07000000000072
:10108C000000000000000000000000000000000054
:10109C000000000000000000000000000000000044
:1010AC000000000000000000000000000000000034
:1010BC000000000000000000000000000000000024
:1010CC000000000000000000000000000000000014
:1010DC0000003EFFE3000070C0803CFE3F337074A4
:1010EC0004626F4C78CFEFDA2A606123277E2000F0
:1010FC00C07800FE7F00000000000000000000002F
:10110C0000000000000000000000000000000000D3
:10111C0000000000000000000000000000000000C3
:10112C0000000000000000000000000000000000B3
:10113C0000000000000000000000000000000000A3
:10114C000000000000000000000000000000008013
:10115C008000C0213F070E3C78F0C2C7C70C0C00C2
:10116C000C0C0C0C18181C1C08008486F3E160FC99
:10117C003C1E070100000000000000000000000001
:10118C000000000000000000000000000000000053
:10119C000000000000000000000000000000000043
:1011AC000000000000000000000000000000000033
:1011BC000000000000000000000000000000000023
:1011CC0000000000000000000000004030381F014B
:1011DC00001F3F21000030200000010313030337E0
:1011EC003636232226263723070703011518020754
:1011FC0073060C1830004080000000000000000056
:10120C0000000000000000000000000000000000D2
:10121C0000000000000000000000000000000000C2
:04122C0000000000BE
:0400000300000410E5
:00000001FF
