:100000001800002051040000C9040000C9040000C9
:1000100000000000000000000000000000000000E0
:10002000000000000000000000000000C904000003
:100030000000000000000000C9040000BD04000032
:10004000C9040000C9040000C9040000C90400007C
:1000500000000000C9040000C9040000C904000039
:10006000C9040000C9040000C9040000C90400005C
:10007000C9040000C9040000C9040000C90400004C
:10008000C9040000C9040000C9040000C90400003C
:10009000C9040000C9040000C904000000000000F9
:1000A000C9040000C9040000C9040000C90400001C
:1000B000C904000000000000C9040000C9040000D9
:10040000FFFFFFFFFFFFFFFFFFFFFFFFFEFFFFFFFD
:1004100080B582B000AF78607A680B4B9A4201D900
:1004200001230CE0094B7A681202120A013A5A6061
:10043000064B00229A60054B07221A600023181C05
:10044000BD4602B080BDC046FFFFFF0010E000E0E7
:1004500080B582B000AF00F0D9F9124B7B60124B2F
:100460003B6007E03B681A1D3A607A68111D7960AD
:1004700012681A603A680D4B9A42F3D30C4B3B60FA
:1004800004E03B681A1D3A6000221A603A68094B82
:100490009A42F6D3084B181CFFF7BAFF00F096F803
:1004A000FEE7C046480A000000FCFF1F04FCFF1FD7
:1004B00004FCFF1F14FCFF1F80BB000080B500AFD1
:1004C00000F0A8F9BD4680BD80B500AFFEE7C0468C
:1004D00080B500AF0E4A88235B010021D1500C4A41
:1004E0000B490C4BCB58802189001943094BD15043
:1004F000094B80225200DA60084B08225A60074BF1
:10050000064A526908210A435A61BD4680BDC04669
:1005100000700440381000000090044000F00F40CC
:1005200080B500AF00F082F9021C074B1B68D31A9C
:10053000FA2B07D900F07AF9021C034B1A60034B1F
:100540000822DA60BD4680BD04FCFF1F00F00F40AA
:1005500080B582B000AF3B1C184A03CA03C300F049
:1005600065F9021C164B1B68D31AFA2B22D900F02E
:100570005DF9021C124B1A60124B1B785A1CD1B247
:10058000104A1170181C00F041F80F4B1A683B1C00
:100590009200D358181C002100F058F80A4B1B6831
:1005A0005A1C094B1A60084B1B68012B02DD064BD5
:1005B00000221A60BD4602B080BDC046400A00005D
:1005C00000FCFF1F08FCFF1F0CFCFF1F80B500AFE5
:1005D000FFF77EFFFFF7A4FFFCE7C04680B582B0BF
:1005E00000AF021CFB1D1A70BD4602B080BDC046A4
:1005F00080B582B000AF021CFB1D1A70BD4602B070
:1006000080BDC04680B500AFBD4680BD80B582B01C
:1006100000AF021CFB1D1A70FB1D1A780723134044
:10062000DAB2FB1DD2001A70FB1DFA1D12784021B0
:100630008A1A1A70D320FFF7D1FFFB1D1B78181CF4
:10064000FFF7CCFFBD4602B080BDC04680B584B088
:1006500000AF786039600023FB600020FFF7BEFF29
:100660001020FFF7BBFF4020FFF7B8FF36E07B68A4
:100670001B78203B5F2B1CDC7B681B781F2B18D959
:100680000023BB6011E07B681B781A1C203A131C06
:100690009B009B181A1CBB68D318224AD35C181CF9
:1006A000FFF7A6FFBB680133BB60BB68042BEAD928
:1006B0000BE00023BB6005E00020FFF799FFBB685B
:1006C0000133BB60BB68042BF6D90020FFF790FF15
:1006D0007B6801337B60FB680133FB607B681B78C0
:1006E000002B09D0FB685A1C131C5B009B181B01D4
:1006F0001A1C0D4B9A42BAD9FA68131C5B009B185E
:100700001B0180229201D31ADB08FB6002E000206B
:10071000FFF76EFFFB685A1EFA60002BF7D1BD464B
:1007200004B080BD40080000FF1F000080B584B009
:1007300000AF786039600023FB600020FFF74EFFB8
:100740001020FFF74BFF4020FFF748FF36E07B68A3
:100750001B78203B5F2B1CDC7B681B781F2B18D978
:100760000023BB6011E07B681B781A1C203A131C25
:100770009B009B181A1CBB68D318224AD35C181C18
:10078000FFF736FFBB680133BB60BB68042BEAD9B7
:100790000BE00023BB6005E00020FFF729FFBB68EA
:1007A0000133BB60BB68042BF6D90020FFF720FFA4
:1007B0007B6801337B60FB680133FB607B681B78DF
:1007C000002B09D0FB685A1C131C5B009B181B01F3
:1007D0001A1C0D4B9A42BAD9FA68131C5B009B187D
:1007E0001B0180229201D31ADB08FB6002E000208B
:1007F000FFF7FEFEFB685A1EFA60002BF7D1BD46DC
:1008000004B080BD40080000FF1F000080B500AFAD
:10081000BD4680BD80B500AF034B1B685A1C024B20
:100820001A60BD4680BDC04610FCFF1F80B500AFFA
:10083000024B1B68181CBD4680BDC04610FCFF1F44
:10084000000000000000005F000000070007001427
:100850007F147F14242A7F2A1223130864623649E6
:100860005522500005030000001C224100004122D7
:100870001C00082A1C2A0808083E080800503000FE
:1008800000080808080800303000002010080402A2
:100890003E5149453E00427F400042615149462158
:1008A00041454B311814127F1027454545393C4AC4
:1008B0004949300171090503364949493606494914
:1008C000291E0036360000005636000000081422AB
:1008D0004114141414144122140800020151090691
:1008E000324979413E7E1111117E7F494949363E98
:1008F000414141227F4141221C7F494949417F09B1
:100900000901013E414151327F0808087F00417FC3
:1009100041002040413F017F081422417F40404078
:10092000407F0204027F7F0408107F3E4141413E28
:100930007F090909063E4151215E7F091929464672
:100940004949493101017F01013F4040403F1F209B
:1009500040201F7F2018207F63140814630304784D
:100960000403615149454300007F414102040810DE
:100970002041417F00000402010204404040404009
:10098000000102040020545454787F48444438380D
:1009900044444420384444487F3854545418087E12
:1009A000090102081454543C7F0804047800447D73
:1009B00040002040443D00007F10284400417F401B
:1009C000007C041804787C080404783844444438D3
:1009D0007C14141408081414187C7C0804040848B7
:1009E00054545420043F4440203C4040207C1C2070
:1009F00040201C3C4030403C44281028440C5050BF
:100A0000503C4464544C44000836410000007F00D0
:100A100000004136080008082A1C08081C2A08089B
:100A200048656C6C6F20776F726C64210000000069
:100A3000416E6F7468657220737472696E672E0000
:080A4000200A0000300A00004A
:040A4800E9030000BE
:0400000300000410E5
:00000001FF
