:1000000010F8FF1F79040000F5040000F50400005B
:1000100000000000000000000000000000000000E0
:10002000000000000000000000000000F5040000D7
:100030000000000000000000F5040000E9040000DA
:10004000F5040000F5040000F5040000F5040000CC
:1000500000000000F5040000F5040000F5040000B5
:10006000F5040000F5040000F5040000F5040000AC
:10007000F5040000F5040000F5040000F50400009C
:10008000F5040000F5040000F5040000F50400008C
:10009000F5040000F5040000F50400000000000075
:1000A000F5040000F5040000F5040000F50400006C
:1000B000F504000000000000F5040000F504000055
:10040000FFFFFFFFFFFFFFFFFFFFFFFFFEFFFFFFFD
:1004100080B584B000AF786000F072FA031CFB6016
:10042000C04600F06DFA021CFB68D21A7B689A4243
:10043000F7D3BD4604B080BD80B582B000AF786010
:100440007A680B4B9A4201D901230CE0094B7A6878
:100450001202120A013A5A60064B00229A60054BBA
:1004600007221A600023181CBD4602B080BDC0469A
:10047000FFFFFF0010E000E080B582B000AF00F0A9
:1004800001FA134B7B60134B3B6009E07B681A68F1
:100490003B681A603B6804333B607B6804337B60D5
:1004A0003A680D4B9A42F1D30C4B3B6005E03B6838
:1004B00000221A603B6804333B603A68084B9A425A
:1004C000F5D3084B181CFFF7B7FF00F06FF8FEE7F5
:1004D0001409000000F0FF1F00F4FF1F00F4FF1FCD
:1004E0000CF4FF1F80BB000080B500AF00F0FCF9EA
:1004F000BD4680BD80B500AFFEE7C04680B500AF09
:100500000E4A88235B010021D1500C4A0B490C4B49
:10051000CB588021C9001943094BD150094B802287
:1005200052001A60084B01229A60074B064A526932
:1005300001210A435A61BD4680BDC0460070044097
:100540003810000000A0044040F00F4080B500AF1C
:1005500000F0D6F9021C074B1B68D31AFA2B07D9F7
:1005600000F0CEF9021C034B1A60034B0122DA6043
:10057000BD4680BD04F4FF1F40F00F4080B500AFC2
:1005800000F0BEF9021C084B1B68D21AFA239B002C
:100590009A4206D900F0B4F9021C034B1A6000F02D
:1005A00021F8BD4680BDC04600F4FF1F80B500AFF6
:1005B000FFF7A4FF00F058F8FFF7C8FFFFF7DEFFD2
:1005C000FAE7C04680B582B000AF7860396002E0DB
:1005D0007B6801337B607B681B78002BF8D1BD46BC
:1005E00002B080BD80B500AF024B181C00F026F9A8
:1005F000BD4680BD00F0FF1F80B582B000AF021C79
:10060000FB1D1A70C046084BDB78DBB21A1C202396
:100610001340F8D0054B40229A60034BFA1D127824
:100620005A71BD4602B080BD00600740C0F00F4067
:1006300080B582B000AF021CFB1D1A70C046084B8B
:10064000DB78DBB21A1C20231340F8D0054B402284
:100650005A60034BFA1D12785A71BD4602B080BD34
:1006600000600740C0F00F4080B500AF6B4A6B4997
:100670006B4BCB58802109011943694BD150674A14
:100680006649674BCB58802149011943644BD150CF
:10069000644B80225200DA61634B80229A60624B85
:1006A000614A526980210A435A61604B802252009C
:1006B0001A615F4B10229A605D4B5D4A52691021AE
:1006C0000A435A61594B802252005A61584B2022EA
:1006D0009A60574B564A526920210A435A61534B3C
:1006E000802252009A61524B40229A60504B504AED
:1006F000526940210A435A614A4B802292001A6192
:10070000484B802292005A61464B802292009A61A7
:10071000424A4249474BCB588021C9031943454BB4
:10072000D150454B444A1278D2B21A210A43D2B270
:100730001A70414B404A5278D2B210210A43D2B2C9
:100740005A703D4B33229A703B4B3B4A1278D2B2DF
:1007500040210A43D2B21A700120FFF759FE324BF2
:1007600080229A600A20FFF753FE2F4B80225A60A6
:100770002F4B10229A602E4B20229A600520FFF703
:1007800047FEAE20FFF738FFD520FFF735FF80206A
:10079000FFF732FFA820FFF72FFF3F20FFF72CFFC6
:1007A000D320FFF729FF0020FFF726FF4020FFF7A7
:1007B00023FF8D20FFF720FF1420FFF71DFF2020CF
:1007C000FFF71AFF0020FFF717FFA120FFF714FF24
:1007D000C820FFF711FFDA20FFF70EFF1220FFF706
:1007E0000BFF8120FFF708FFCF20FFF705FFD9207F
:1007F000FFF702FFF120FFF7FFFEDB20FFF7FCFE13
:100800004020FFF7F9FEA420FFF7F6FEA620FFF731
:10081000F3FEAF20FFF7F0FEBD4680BD0070044040
:100820003810000000B0044080F00F4000C00440C9
:10083000C0F00F40341000000060074080B584B065
:1008400000AF78600020FFF7D7FE1020FFF7D4FE3E
:100850004020FFF7D1FE0023FB6009E07A68FB68C7
:10086000D3181B78181CFFF7E3FEFB680133FB600D
:10087000FA68034B9A42F1D9BD4604B080BDC04628
:10088000FF03000080B500AF124B124AD278D1B2FC
:100890001F220A40D2B2602149420A43D2B2DA7022
:1008A0000D4A0D490D4BCB58E0218B434021194394
:1008B0000A4BD150084A0849094BCB5880210901FD
:1008C0001943074BD150074BA822D200DA60BD462E
:1008D00080BDC04600400640007004400410000087
:1008E0003810000000B0044080B500AF034B1B6817
:1008F0005A1C024B1A60BD4680BDC04608F4FF1F5B
:1009000080B500AF024B1B68181CBD4680BDC046B9
:0409100008F4FF1FC9
:1009140000000000000000000000000000000000D3
:1009240000000000000000000000000000000000C3
:1009340000000000000000000000000000000000B3
:100944000000000000000000000000000000008023
:100954008080000000000000000000000000000093
:10096400008080C0C0000000000000000000000003
:100974000000000000000000000000000000000073
:100984000000000000000000000000000000000063
:100994000000000000000000000000000000000053
:1009A4000000000080C0E0F0F8FCF8E00000000067
:1009B40000000000000000000000000000808080B3
:1009C400808000808000000000808080808000FFA4
:1009D400FFFF000000008080808000008080000015
:1009E40080FFFF8080008080008080808000808085
:1009F4000000000000808000008C8E84000080F8DD
:100A0400F8F8800000000000000000000000000072
:100A1400F0F0F0F0F0F0F0F0F0F0F0F0E0E0C08092
:100A240000E0FCFEFFFFFF7FFFFFFFFFFF00000071
:100A34000000000000000000000000FEFFC70101EC
:100A4400010183FFFF00007CFEC70101010183FF58
:100A5400FFFF0038FEC78301010183C7FFFF0000C9
:100A640001FFFF010100FFFF0701010100007FFFFB
:100A740080000000FFFF7F0000FFFFFF000001FF78
:100A8400FFFF010000000000000000000000000063
:100A9400030F3F7F7FFFFFFFFFFFFFFFE7C7C78F06
:100AA4008F9FBFFFFFC3C0F0FFFFFFFFFFFCFCFCF5
:100AB400FCFCFCFCFCF8F8F0F0E0C00001030303CC
:100AC4000303010303000000000103030303010106
:100AD40003010000000103030303010103030000F9
:100AE40000030300000003030000000000000001F5
:100AF40003030303030100000001030100000003DA
:100B040003010000000000000000000000000000DD
:100B140000000080C0E0F0F9FFFFFFFFFF3F1F0F60
:100B240087C7F7FFFF1F1F3DFCF8F8F8F87C7DFF2F
:100B3400FFFFFFFFFFFFFF7F3F0F07003030000084
:100B440000000000000000000000000000000000A1
:100B540000000000FEFEFC00000000000000000099
:100B640000000000000000000000000000E0C000E1
:100B74000000000000000000000030300000000011
:100B84000000000000000000000000000000000061
:100B940000C0FEFFFFFFFFFFFFFFFFFF7F7F3F1F40
:100BA4000F071F7FFFFFF8F8FFFFFFFFFFFEF8E0CE
:100BB400000000010000000000000000FEFE000034
:100BC40000FCFEFC0C06060EFCF80000F0F81C0EFF
:100BD4000606060CFFFFFF0000FEFE00000000FCFE
:100BE400FEFC00183C7E66E6CE84000006FFFF068D
:100BF40006FCFEFC0C0606060000FEFE0000C0F823
:100C0400FC4E4646464E7C7840183C76E6CECC8078
:100C140000000000000000000000000000000000D0
:100C24000000000001070F1F1F3F3F3F3F1F0F033E
:100C34000000000000000000000000000F0F000092
:100C4400000F0F0F000000000F0F000003070E0C31
:100C540018180C060F0F0F0000010F0E0C180C0FC4
:100C6400070100040E0C180C0F070000000F0F0002
:100C7400000F0F0F0000000000000F0F000000071E
:100C8400070C0C181C0C060600040E0C180C0F079D
:100C94000000000000000000000000000000000050
:100CA4000000000000000000000000000000000040
:100CB4000000000000000000000000000000000030
:100CC4000000000000000000000000000000000020
:100CD4000000000000000000000000000000000010
:100CE4000000000000000000000000000000000000
:100CF40000000000000000000000000000000000F0
:100D040000000000000000000000000000000000DF
:00000001FF
