:1000000010F8FF1F51040000CD040000CD040000D3
:1000100000000000000000000000000000000000E0
:10002000000000000000000000000000CD040000FF
:100030000000000000000000CD040000C10400002A
:10004000CD040000CD040000CD040000CD0400006C
:1000500000000000CD040000CD040000CD0400002D
:10006000CD040000CD040000CD040000CD0400004C
:10007000CD040000CD040000CD040000CD0400003C
:10008000CD040000CD040000CD040000CD0400002C
:10009000CD040000CD040000CD04000000000000ED
:1000A000CD040000CD040000CD040000CD0400000C
:1000B000CD04000000000000CD040000CD040000CD
:10040000FFFFFFFFFFFFFFFFFFFFFFFFFEFFFFFFFD
:1004100080B582B000AF78607A680B4B9A4201D900
:1004200001230CE0094B7A681202120A013A5A6061
:10043000064B00229A60054B07221A600023181C05
:10044000BD4602B080BDC046FFFFFF0010E000E0E7
:1004500080B582B000AF00F0F1F9134B7B60134B15
:100460003B6009E07B681A683B681A603B680433AC
:100470003B607B6804337B603A680D4B9A42F1D352
:100480000C4B3B6005E03B6800221A603B6804337C
:100490003B603A68084B9A42F5D3084B181CFFF7AB
:1004A000B7FF00F0BFF9FEE7DC08000000F0FF1F17
:1004B00004F0FF1F04F0FF1F10F4FF1F80BB0000BB
:1004C00080B500AF00F0ECF9BD4680BD80B500AF4F
:1004D000FEE7C04680B584B000AF786000F0ECF96C
:1004E000031CFB60C04600F0E7F9021CFB68D21A4F
:1004F0007B689A42F7D3BD4604B080BD80B500AF9B
:100500000E4A88235B010021D1500C4A0B490C4B49
:10051000CB588021C9001943094BD150094B802287
:1005200052001A60084B01229A60074B064A526932
:1005300001210A435A61BD4680BDC0460070044097
:100540003810000000A0044040F00F4080B582B099
:1005500000AF021CFB1D1A70C046084BDB78DBB2F3
:100560001A1C20231340F8D0054B40229A60034BFD
:10057000FA1D12785A71BD4602B080BD0060074076
:10058000C0F00F4080B582B000AF021CFB1D1A7096
:10059000C046084BDB78DBB21A1C20231340F8D08E
:1005A000054B40225A60034BFA1D12785A71BD4622
:1005B00002B080BD00600740C0F00F4080B500AFC2
:1005C0006B4A6B496B4BCB58802109011943694B2E
:1005D000D150674A6649674BCB588021490119437E
:1005E000644BD150644B80225200DA61634B80220D
:1005F0009A60624B614A526980210A435A61604B9A
:10060000802252001A615F4B10229A605D4B5D4A56
:10061000526910210A435A61594B802252005A6193
:10062000584B20229A60574B564A526920210A4360
:100630005A61534B802252009A61524B40229A6079
:10064000504B504A526940210A435A614A4B80221A
:1006500092001A61484B802292005A61464B8022D8
:1006600092009A61424A4249474BCB588021C903C4
:100670001943454BD150454B444A1278D2B21A2106
:100680000A43D2B21A70414B404A5278D2B210217A
:100690000A43D2B25A703D4B73229A703B4B3B4A8D
:1006A0001278D2B240210A43D2B21A700120FFF769
:1006B00011FF324B80229A600A20FFF70BFF2F4B6D
:1006C00080225A602F4B10229A602E4B20229A6073
:1006D0000520FFF7FFFEAE20FFF738FFD520FFF71C
:1006E00035FF8020FFF732FFA820FFF72FFF3F20C4
:1006F000FFF72CFFD320FFF729FF0020FFF726FF8D
:100700004020FFF723FF8D20FFF720FF1420FFF785
:100710001DFF2020FFF71AFF0020FFF717FFA12081
:10072000FFF714FFC820FFF711FFDA20FFF70EFFD5
:100730001220FFF70BFF8120FFF708FFCF20FFF704
:1007400005FFD920FFF702FFF120FFF7FFFEDB20B6
:10075000FFF7FCFE4020FFF7F9FEA420FFF7F6FEAE
:10076000A620FFF7F3FEAF20FFF7F0FEBD4680BDE9
:10077000007004403810000000B0044080F00F40CA
:1007800000C00440C0F00F4034100000006007407B
:1007900080B500AF00F090F8021C074B1B68D31A1D
:1007A000FA2B07D900F088F8021C034B1A60034BA0
:1007B0000122DA60BD4680BD08F4FF1F40F00F4003
:1007C00080B582B000AF78600020FFF7BFFE102038
:1007D000FFF7BCFE4020FFF7B9FE02E07B68013363
:1007E0007B607B681B78002BF8D1BD4602B080BDD2
:1007F00080B500AF00F060F8021C084B1B68D31AEC
:10080000962B09D900F058F8021C044B1A60044BCF
:100810001B68181CFFF7D4FFBD4680BD04F4FF1F02
:1008200000F0FF1F80B500AFFFF768FEFFF7C6FEC0
:10083000FFF7AEFFFFF7DCFFFAE7C04680B500AF79
:10084000124B124AD278D1B21F220A40D2B2602192
:1008500049420A43D2B2DA700D4A0D490D4BCB58CA
:10086000E0218B43402119430A4BD150084A0849E3
:10087000094BCB58802109011943074BD150074B35
:10088000A822D200DA60BD4680BDC04600400640C6
:1008900000700440041000003810000000B0044054
:1008A00080B500AF034B1B685A1C024B1A60BD4653
:1008B00080BDC0460CF4FF1F80B500AF024B1B6823
:1008C000181CBD4680BDC0460CF4FF1F68656C6CEB
:0C08D0006F20776F726C64210000000044
:0408DC00CC08000044
:00000001FF
