:1000000010F8FF1F79040000F5040000F50400005B
:1000100000000000000000000000000000000000E0
:10002000000000000000000000000000F5040000D7
:100030000000000000000000F5040000E9040000DA
:10004000F5040000F5040000F5040000F5040000CC
:1000500000000000F5040000F5040000F5040000B5
:10006000F5040000F5040000F5040000F5040000AC
:10007000F5040000F5040000F5040000F50400009C
:10008000F5040000F5040000F5040000F50400008C
:10009000F5040000F5040000F50400000000000075
:1000A000F5040000F5040000F5040000F50400006C
:1000B000F504000000000000F5040000F504000055
:10040000FFFFFFFFFFFFFFFFFFFFFFFFFEFFFFFFFD
:1004100080B584B000AF786000F0DAFA031CFB60AE
:10042000C04600F0D5FA021CFB68D21A7B689A42DB
:10043000F7D3BD4604B080BD80B582B000AF786010
:100440007A680B4B9A4201D901230CE0094B7A6878
:100450001202120A013A5A60064B00229A60054BBA
:1004600007221A600023181CBD4602B080BDC0469A
:10047000FFFFFF0010E000E080B582B000AF00F0A9
:1004800069FA134B7B60134B3B6009E07B681A6889
:100490003B681A603B6804333B607B6804337B60D5
:1004A0003A680D4B9A42F1D30C4B3B6005E03B6838
:1004B00000221A603B6804333B603A68084B9A425A
:1004C000F5D3084B181CFFF7B7FF00F06FF8FEE7F5
:1004D000840D000000F0FF1F04F0FF1F04F0FF1F59
:1004E0000CF4FF1F80BB000080B500AF00F064FA81
:1004F000BD4680BD80B500AFFEE7C04680B500AF09
:100500000E4A88235B010021D1500C4A0B490C4B49
:10051000CB588021C9001943094BD150094B802287
:1005200052001A60084B01229A60074B064A526932
:1005300001210A435A61BD4680BDC0460070044097
:100540003810000000A0044040F00F4080B500AF1C
:1005500000F03EFA021C074B1B68D31AFA2B07D98E
:1005600000F036FA021C034B1A60034B0122DA60DA
:10057000BD4680BD04F0FF1F40F00F4080B500AFC6
:1005800000F026FA021C084B1B68D21AFA239B00C3
:100590009A4206D900F01CFA021C034B1A6000F0C4
:1005A00053F9BD4680BDC04600F0FF1F80B500AFC7
:1005B000FFF7A4FF00F044F8044B181C002100F0E2
:1005C00067F9FFF7C3FFFFF7D9FFFAE7C40B000095
:1005D00080B582B000AF021CFB1D1A70C046084BEC
:1005E000DB78DBB21A1C20231340F8D0054B4022E5
:1005F0009A60034BFA1D12785A71BD4602B080BD55
:1006000000600740C0F00F4080B582B000AF021C10
:10061000FB1D1A70C046084BDB78DBB21A1C202386
:100620001340F8D0054B40225A60034BFA1D127854
:100630005A71BD4602B080BD00600740C0F00F4057
:1006400080B582B000AF774A7649774BCB5880218E
:1006500009011943744BD150724A7249724BCB58FD
:10066000802149011943704BD150704B80225200B8
:10067000DA616F4B80229A606D4B6D4A526980211E
:100680000A435A616B4B802252001A616A4B102256
:100690009A60694B684A526910210A435A61654B56
:1006A000802252005A61644B20229A60624B624A57
:1006B000526920210A435A615E4B802252009A619E
:1006C0005D4B40229A605C4B5B4A526940210A4371
:1006D0005A61564B802292001A61544B802292003C
:1006E0005A61524B802292009A614E4A4D49534BB7
:1006F000CB588021C9031943504BD150504B504A1D
:100700001278D2B21A210A43D2B21A704C4B4C4A18
:100710005278D2B210210A43D2B25A70484B3322D7
:100720009A70474B464A1278D2B240210A43D2B25D
:100730001A700120FFF76CFE3D4B80229A600A2060
:10074000FFF766FE3A4B80225A603B4B10229A60BC
:10075000394B20229A600520FFF75AFEAE20FFF7A2
:1007600037FFD520FFF734FF8020FFF731FFA820A7
:10077000FFF72EFF3F20FFF72BFFD320FFF728FFC7
:100780000020FFF725FF4020FFF722FF8D20FFF715
:100790001FFF1420FFF71CFF2020FFF719FF002088
:1007A000FFF716FFA120FFF713FFC820FFF710FF88
:1007B000DA20FFF70DFF1220FFF70AFF8120FFF775
:1007C00007FFCF20FFF704FFD920FFF701FFF1203B
:1007D000FFF7FEFEDB20FFF7FBFE4020FFF7F8FEF1
:1007E000A420FFF7F5FEA620FFF7F2FE0020FFF79A
:1007F000EFFE1020FFF7ECFE4020FFF7E9FE00239C
:100800007B6005E00020FFF7FFFE7B6801337B6023
:100810007A680C4B9A42F5D9AF20FFF7D9FEBD4656
:1008200002B080BD007004403810000000B00440E9
:1008300080F00F4000C00440C0F00F4034100000B2
:1008400000600740FF03000080B582B000AF0020C9
:10085000FFF7BEFE1020FFF7BBFE4020FFF7B8FEFB
:1008600000237B6009E0084A7B68D3181B78181CBA
:10087000FFF7CAFE7B6801337B607A68034B9A42BC
:10088000F1D9BD4602B080BD08F0FF1FFF03000094
:1008900080B584B000AF786039600023FB604BE026
:1008A0007B681B78203B5F2B23DC7B681B781F2B2E
:1008B0001FD90023BB6018E0FA68131C5B009B186B
:1008C0005B001A1CBB68D1187B681B781A1C131CB0
:1008D0009B009B181A1CBB68D318A03B1B4AD25C18
:1008E0001B4B5A54BB680133BB60BB68042BE3D974
:1008F00013E00023BB600DE0FA68131C5B009B183B
:100900005B001A1CBB68D318114A0021D154BB6884
:100910000133BB60BB68042BEED9FA68131C5B0083
:100920009B185B0005330A4A0021D1547B680133D0
:100930007B60FB680133FB607B681B78002B02D077
:10094000FB68FB2BACD9BD4604B080BDE4090000B8
:1009500008F0FF1F80B500AF124B124AD278D1B217
:100960001F220A40D2B2602149420A43D2B2DA7051
:100970000D4A0D490D4BCB58E0218B4340211943C3
:100980000A4BD150084A0849094BCB58802109012C
:100990001943074BD150074BA822D200DA60BD465D
:1009A00080BDC046004006400070044004100000B6
:1009B0003810000000B0044080B500AF034B1B6846
:1009C0005A1C024B1A60BD4680BDC04608F4FF1F8A
:1009D00080B500AF024B1B68181CBD4680BDC046E9
:1009E00008F4FF1F000000000000005F0000000787
:1009F000000700147F147F14242A7F2A122313086F
:100A0000646236495522500005030000001C224153
:100A1000000041221C00082A1C2A0808083E080879
:100A2000005030000008080808080030300000209E
:100A3000100804023E5149453E00427F4000426199
:100A40005149462141454B311814127F1027454525
:100A500045393C4A4949300171090503364949493C
:100A600036064949291E0036360000005636000079
:100A70000008142241141414141441221408000212
:100A800001510906324979413E7E1111117E7F499B
:100A90004949363E414141227F4141221C7F49491B
:100AA00049417F090901013E414151327F0808084F
:100AB0007F00417F41002040413F017F08142241D7
:100AC0007F404040407F0204027F7F0408107F3E49
:100AD0004141413E7F090909063E4151215E7F099E
:100AE000192946464949493101017F01013F4040EA
:100AF000403F1F2040201F7F2018207F63140814D0
:100B0000630304780403615149454300007F414178
:100B1000020408102041417F000004020102044049
:100B200040404040000102040020545454787F4863
:100B30004444383844444420384444487F3854546A
:100B40005418087E090102081454543C7F08040418
:100B50007800447D40002040443D00007F10284440
:100B600000417F40007C041804787C080404783835
:100B7000444444387C14141408081414187C7C0869
:100B80000404084854545420043F4440203C40404E
:100B9000207C1C2040201C3C4030403C4428102835
:100BA000440C5050503C4464544C440008364100BE
:100BB00000007F0000004136080008082A1C0808D1
:100BC0001C2A08084C6F72656D20697073756D2062
:100BD000646F6C6F722073697420616D65742C2072
:100BE000636F6E7365637465747572206164697098
:100BF00069736963696E6720656C69742C2073651D
:100C00006420646F20656975736D6F642074656D11
:100C1000706F7220696E6369646964756E742075A3
:100C200074206C61626F726520657420646F6C6FF4
:100C30007265206D61676E6120616C697175612EEE
:100C400020557420656E696D206164206D696E6940
:100C50006D2076656E69616D2C2071756973206EEB
:100C60006F737472756420657865726369746174FA
:100C7000696F6E20756C6C616D636F206C61626F63
:100C8000726973206E69736920757420616C697173
:100C900075697020657820656120636F6D6D6F6484
:100CA0006F20636F6E7365717561742E2044756972
:100CB00073206175746520697275726520646F6C4C
:100CC0006F7220696E20726570726568656E64650A
:100CD00072697420696E20766F6C757074617465CA
:100CE0002076656C697420657373652063696C6C2C
:100CF000756D20646F6C6F72652065752066756711
:100D0000696174206E756C6C6120706172696174C8
:100D100075722E20457863657074657572207369ED
:100D20006E74206F636361656361742063757069BD
:100D30006461746174206E6F6E2070726F69646597
:100D40006E742C2073756E7420696E2063756C70E0
:100D50006120717569206F666669636961206465E9
:100D6000736572756E74206D6F6C6C697420616E42
:100D7000696D20696420657374206C61626F72759F
:040D80006D2E0000D4
:040D8400E90300007F
:00000001FF
